:100000000C94A7010C940A1C0C94E31B0C94801B09
:100010000C941D1B0C94AC1A0C94CF010C94CF01C2
:100020000C94CF010C94CF010C94CF010C94F019D7
:100030000C94CF010C94CF010C94CF010C94CF0100
:100040000C944E190C94CF010C94BE190C94981971
:100050000C94CF010C94CF010C94CF010C94CF01E0
:100060000C94CF010C94CF0100407A10F35A00A0F9
:10007000724E18090010A5D4E80000E87648170071
:1000800000E40B54020000CA9A3B000000E1F505B1
:10009000000080969800000040420F000000A086FB
:1000A00001000000102700000000E803000000002D
:1000B0006400000000000A000000000001000000D1
:1000C00000002C76D888DC674F0823DFC1DFAE59EB
:1000D000E1B1B796E5E3E453C63AE651997696E87E
:1000E000E6C28426EB898C9B62ED407C6FFCEFBC02
:1000F0009C9F40F2BAA56FA5F490055A2AF75C932D
:100100006B6CF9676DC11BFCE0E40D47FEF520E662
:10011000B500D0ED902E0300943577050080841E45
:10012000080000204E0A000000C80C333333330FA0
:10013000986E12831141EF8D2114893BE65516CF3D
:10014000FEE6DB18D1844B381BF77C1D901DA4BB49
:10015000E424203284725E228100C9F124ECA1E5FE
:100160003D27005EBCE2613FDD83C29C7E20A3FD93
:100170001F41009D23BE46DB65F88C11AF32CA5784
:10018000E974506C6561736520636F6E6E656374AE
:1001900020746F20687474703A2F2F005365727644
:1001A00065722069732072656164792E004652453C
:1001B000452052414D3A200030003A0030003A00CC
:1001C0003000642000220A207D002C0A2275705421
:1001D000696D65223A22002C0A22667265655261B9
:1001E0006D223A000A09207D002C0A092263662D3F
:1001F0006D697865722D736572766F223A002C0AEC
:10020000092263662D766265642D66223A002C0A07
:10021000092263662D76626174682D66223A002C8D
:100220000A092263662D6B697463682D66223A00A1
:100230002C0A092263662D73742D66223A002C0A5B
:10024000092263662D6265642D66223A002C0A0934
:100250002263662D74762D66223A000A09226366AF
:100260002D68616C6C2D66223A002C00223A000A3F
:100270000922002C0A2264617461223A207B002248
:100280002C0A2276657273696F6E223A000A226424
:1002900065766963654964223A22007B00436F6E8C
:1002A00074656E742D4C656E6774683A2000436FF8
:1002B0006E74656E742D547970653A206170706C3F
:1002C00069636174696F6E2F6A736F6E004854546E
:1002D000502F312E3120323030204F4B00000000A3
:1002E00000250028002B000000000800020100008B
:1002F00003040700000000000000000000000024CC
:100300000027002A0000010203040506070001027D
:100310000304050001020304050000000023002679
:10032000002900040404040404040402020202027A
:1003300002030303030303010204081020408001A9
:10034000020408102001020408102000311C1124AE
:100350001FBECFEFD8E0DEBFCDBF11E0A0E0B1E01F
:10036000E8EEF8E502C005900D92A43FB107D9F779
:1003700023E0A4EFB1E001C01D92A73DB207E1F771
:1003800011E0C7EAD1E004C02197FE010E943B2B97
:10039000C63AD107C9F70E94801D0C94722C0C94A8
:1003A00000009EEF980F923008F47BC090E0FC01B3
:1003B000E95CFC4F2491FC01ED5DFC4F349132303F
:1003C00061F540919502422B409395028B5F9C4FC3
:1003D000FC01A491323089F5B0E0AA0FBB1FA957E8
:1003E000BD4F6D937C93EDE1F3E0A591B4918C91B9
:1003F000809386028BE690E090938502809384023E
:1004000080916800816080936800A0918402B0911F
:100410008502EC912E2B2C930895333031F44091CA
:100420009402422B40939402D1CF343079F640911C
:100430009302422B40939302C9CF3330C1F4B0E012
:10044000AA0FBB1FA858BD4F6D937C93EFE1F3E05B
:10045000A591B4918C91809377028CE690E0909373
:10046000850280938402809168008260CCCF343012
:1004700061F6B0E0AA0FBB1FA959BD4F6D937C93E5
:10048000E1E2F3E0A591B4918C91809366028DE650
:1004900090E090938502809384028091680084604C
:1004A000B2CF9FB7F894823099F47093630260934F
:1004B0006202E898809169008C7F80936900809146
:1004C0006900826080936900E09AE89A9FBF08956E
:1004D0007093650260936402E99880916900837F5C
:1004E0008093690080916900886080936900E19A37
:1004F000E99AECCFFC01818D928D089590E0FC018A
:10050000E951FD4F2491FC01E95CFC4F3491FC0161
:10051000ED5DFC4FE491EE23C9F0222339F0233046
:1005200001F1A8F4213019F1223029F1F0E0EE0FA9
:10053000FF1FE352FD4FA591B4918FB7F894EC9152
:10054000611126C030953E233C938FBF089527301C
:10055000A9F02830C9F0243049F7809180008F7DC0
:1005600003C0809180008F7780938000DFCF84B5B7
:100570008F7784BDDBCF84B58F7DFBCF8091B000BA
:100580008F778093B000D2CF8091B0008F7DF9CF6C
:100590003E2BDACFCF93DF9390E0FC01E95CFC4F78
:1005A00024918D5D9C4FFC0184918823D1F090E0D3
:1005B000880F991FFC01E550FD4FA591B491FC01F6
:1005C000E352FD4FC591D49161110EC09FB7F894CD
:1005D0008C91E22FE0958E238C932881E223E8838F
:1005E0009FBFDF91CF9108958FB7F894EC91E22BE4
:1005F000EC938FBFF6CF3FB7F89480914302909170
:100600004402A0914502B091460226B5A89B05C0C0
:100610002F3F19F00196A11DB11D3FBFBA2FA92F81
:10062000982F8827BC01CD01620F711D811D911D7E
:1006300042E0660F771F881F991F4A95D1F70895EA
:100640008F929F92AF92BF92CF92DF92EF92FF92E2
:100650006B017C010E94FB024B015C01C114D104BF
:10066000E104F104B9F00E94FB02681979098A09D2
:100670009B09683E73408105910580F321E0C21A11
:10068000D108E108F10888EE880E83E0981EA11CCD
:10069000B11CE4CFFF90EF90DF90CF90BF90AF9070
:1006A0009F908F9008952FB7F89460913F027091BA
:1006B000400280914102909142022FBF0895EF9233
:1006C000FF920F931F93CF93DF938C017B01D0E0B8
:1006D000C0E0F701EC0FFD1F6491662361F0D801C3
:1006E000ED91FC910190F081E02DC8010995892BD5
:1006F00011F02196EECFCE01DF91CF911F910F9196
:10070000FF90EF900895AF92BF92CF92DF92EF9259
:10071000FF920F931F93CF93DF936C017B018B01AB
:10072000040F151FEB015E01AE18BF08C017D107FB
:1007300059F06991D601ED91FC910190F081E02D85
:10074000C6010995892B79F7C501DF91CF911F91DA
:100750000F91FF90EF90DF90CF90BF90AF900895F2
:1007600021E0FC018485883009F420E0822F08957F
:1007700080911D0290911E02A0911F02B091200253
:100780000196A11DB11D80931D0290931E02A0939E
:100790001F02B093200208958091150290911602D5
:1007A000A0911702B09118020196A11DB11D80936E
:1007B000150290931602A0931702B09318020895A1
:1007C00080910D0290910E02A0910F02B091100243
:1007D0000196A11DB11D80930D0290930E02A0936E
:1007E0000F02B093100208958091050290910602C5
:1007F000A0910702B09108020196A11DB11D80933E
:10080000050290930602A0930702B0930802089590
:100810008091350290913602A0913702B091380252
:100820000196A11DB11D8093350290933602A093CD
:100830003702B0933802089580912D0290912E02D4
:10084000A0912F02B09130020196A11DB11D80939D
:100850002D0290932E02A0932F02B09330020895A0
:100860008091250290912602A0912702B091280242
:100870000196A11DB11D8093250290932602A0939D
:100880002702B09328020895FC01538D448D252F33
:1008900030E0842F90E0821B930B541710F0CF961A
:1008A000089501970895FC01918D828D981761F04C
:1008B000A28DAE0FBF2FB11D5D968C91928D9F5F63
:1008C0009F73928F90E008958FEF9FEF0895FC0142
:1008D000918D828D981731F0828DE80FF11D858DF5
:1008E00090E008958FEF9FEF0895FC01918D228D88
:1008F000892F90E0805C9F4F821B91098F7399270D
:10090000089585EA92E00E94750421E0892B09F49C
:1009100020E0822F089580E090E0892B29F00E944A
:10092000810481110C9400000895FC01A48DA80F8E
:10093000B92FB11DA35ABF4F2C91848D90E0019621
:100940008F739927848FA689B7892C93A089B18941
:100950008C91837080648C93938D848D981306C0E2
:100960000288F389E02D80818F7D80830895EF9246
:10097000FF920F931F93CF93DF93EC0181E0888F59
:100980009B8D8C8D98131AC0E889F989808185FF29
:1009900015C09FB7F894EE89FF896083E889F989CB
:1009A00080818370806480839FBF81E090E0DF91CD
:1009B000CF911F910F91FF90EF900895F62E0B8D20
:1009C00010E00F5F1F4F0F731127E02E8C8D8E11DB
:1009D0000CC00FB607FCFACFE889F989808185FF42
:1009E000F5CFCE010E949504F1CFEB8DEC0FFD2FDA
:1009F000F11DE35AFF4FF0829FB7F8940B8FEA89FD
:100A0000FB8980818062CFCFCF93DF93EC01888D0B
:100A10008823B9F0AA89BB89E889F9898C9185FD79
:100A200003C0808186FD0DC00FB607FCF7CF8C9107
:100A300085FFF2CF808185FFEDCFCE010E94950426
:100A4000E9CFDF91CF91089561E0809148020C9445
:100A50007E0260E0809148020C947E0208958EBD73
:100A600000000DB407FEFDCF8EB508958CBD9DBD71
:100A70000895DF92EF92FF920F931F93CF93DF932E
:100A8000D82FD92EC62F7A018901809142039091E7
:100A900043030E9436050E9429058D2D0E942F05D3
:100AA0008D2F0E942F058C2F0E942F05E701E00E4D
:100AB000F11E80E00E942F058993EC16FD06C9F710
:100AC0000E942405C801DF91CF911F910F91FF90E3
:100AD000EF90DF900895CF93DF93D82FC62F8091AA
:100AE0004203909143030E9436050E94290580E04D
:100AF0000E942F058D2F0E942F058C2F0E942F05FD
:100B000080E00E942F05C82F0E9424058C2FDF91C2
:100B1000CF910895DF92EF92FF920F931F93CF939F
:100B2000DF93D82FD92EC62F7A01890180914203F5
:100B3000909143030E9436050E9429058D2D0E9445
:100B40002F058D2F0E942F058C2F0E942F05E70166
:100B5000E00EF11ECE15DF0521F089910E942F05D0
:100B6000F9CF0E942405C801DF91CF911F910F9109
:100B7000FF90EF90DF9008951F93CF93DF93182F8E
:100B8000D62FC42F80914203909143030E943605D3
:100B90000E94290580E00E942F05812F0E942F05C9
:100BA0008D2F0E942F058C2F0E942F050E94240557
:100BB00081E0DF91CF911F910895CF92DF92EF9264
:100BC000FF920F931F93CF93DF93CDB7DEB7C2543D
:100BD000D1090FB6F894DEBF0FBECDBFFC018281F4
:100BE0009381A481B58123968CAF9DAFAEAFBFAF8B
:100BF000239721E023962FAF239723964CAD5DAD2D
:100C00006EAD7FAD23974BAB5CAB6DAB7EAB89AF6D
:100C10009AAFABAFBCAF8DA79EA7AFA7B8AB28ABC1
:100C20004DA55EA56FA578A94FA358A769A77AA778
:100C30002EAB4BA95CA96DA97EA949A35AA36BA3AE
:100C40007CA38B8F9C8FAD8FBE8F42E851E05C8B75
:100C50004B8B3FEF3D8B3E8B3F8B188E5E874D87D6
:100C60002AA7CFA0D8A4E9A4FAA4CF86D88AE98A73
:100C7000FA8A2CA309A11AA12BA13CA109871A87E2
:100C80002B873C875A8349838B839C83AD83BE83A8
:100C9000109162031093480268EE73E080E090E0E8
:100CA0000E94200361E0812F0E94CA021FB7F894BE
:100CB00080914702811127C0EDE2F3E08491E1E4E5
:100CC000F3E09491E82FF0E0EE0FFF1FE550FD4FA9
:100CD000A591B491EC91E92321F461E08AE00E94AE
:100CE0007E0261E08AE00E94CA028CB580618CBD00
:100CF0008CB580648CBD61E08DE00E94CA0261E029
:100D00008BE00E94CA02809147028F5F8093470266
:100D10001FBF60E090E080E00E946B05482F4068B4
:100D200064E090E080E00E94BC051CE088E0E82ED2
:100D3000F12C42E0612F8EE190E00E94BC0542E080
:100D4000612F8FE190E00E94BC05F1E0EF1AF108FD
:100D5000105EE114F10469F726E030E042E051E072
:100D600064E089E090E00E948A0524E030E0AE0172
:100D70004D5F5F4F64E08FE090E00E948A0524E0C1
:100D800030E0AE01415F5F4F64E081E090E00E949F
:100D90008A0524E030E0AE014B5E5F4F64E085E001
:100DA00090E00E948A0581E08C8789859A85AB85D1
:100DB000BC858093580390935903A0935A03B09332
:100DC0005B03CE5BDF4F0FB6F894DEBF0FBECDBF27
:100DD000DF91CF911F910F91FF90EF90DF90CF9017
:100DE00008959B018295880F807E6CE0680FC90191
:100DF0000C94BC05DC0180E0615090F09D91982737
:100E0000E92FEF70F0E0EE59FE4F2491E92FE295C3
:100E1000EF70F0E0EE58FE4FE491822F8E27ECCF7A
:100E20000895DC012C911196ED91FC91F89481814B
:100E3000822B81839281322F30959323928387E096
:100E400090E00197F1F781818323818383E290E031
:100E50000197F1F790817894EFECF0E03197F1F79A
:100E6000922381E009F480E00895FC0190810180E3
:100E7000F281E02D292F209560FF14C0F894828123
:100E8000822382838181892B8183A3E2B0E0119741
:100E9000F1F78281982B9283789487ED90E0019707
:100EA000F1F70895F8948281822382838181892BCE
:100EB0008183AFEFB0E01197F1F78281982B928395
:100EC00078948FE090E0EBCFDF92EF92FF920F9358
:100ED0001F93CF93DF93EC01D62EE42E08E010E0B1
:100EE000FF24F39461E08D2D8F2109F460E0CE01A1
:100EF0000E943507FF0C01501109A1F7E11010C045
:100F0000F894E981FA819181888180958923818390
:100F1000E981FA81928188818095892382837894FE
:100F2000DF91CF911F910F91FF90EF90DF90089587
:100F3000EF92FF920F931F93CF93DF938C017B016E
:100F400040E065E50E946407E70188E0E80EF11CD7
:100F5000699140E0C8010E946407CE15DF05C1F722
:100F6000DF91CF911F910F91FF90EF900895FC01B9
:100F700090810180F281E02DF8948181292F2095C4
:100F80008223818378943DE743E050E0315029F19A
:100F9000DA011197F1F780818923C1F3F8948281F6
:100FA000822382838181892B81837894ABE7B7E0A8
:100FB0001197F1F7F894818182238183A3E1B1E055
:100FC0001197F1F78081982381E009F080E078940F
:100FD000E3E6F6E03197F1F7089580E008958F9207
:100FE0009F92AF92BF92CF92DF92EF92FF92809149
:100FF000A5039091A6030E94B70740E06CEC809196
:10100000A5039091A6030E94640740919F0364E4A6
:101010008091A5039091A6030E9464078091A1038B
:10102000882399F1E091A003E9508EEEC82E82E06A
:10103000D82EE33038F4F0E0EE0FFF1FE85AFE4FF1
:10104000C080D1808091A203882341F180919F03C9
:10105000811124C00E9453034B015C010D2C000C34
:10106000EE08FF088091A5039091A6030E94110746
:10107000813059F00E9453036C197D098E099F0934
:10108000681579058A059B0568F3FF90EF90DF905E
:10109000CF90BF90AF909F908F900895B601DD0CD8
:1010A000880B990BFF90EF90DF90CF90BF90AF909F
:1010B0009F908F900C942003AF92BF92CF92DF92BB
:1010C000EF92FF920F931F93CF93DF938B01BC019D
:1010D0008091A5039091A6030E94980740E06EEBD3
:1010E0008091A5039091A6030E946407E80168011E
:1010F00089E0C80ED11CA090A503B090A60388E09B
:10110000E82EF12C10E001E0C5010E9411078111C9
:10111000102B000F81E0E81AF108B1F71993CC16F3
:10112000DD0649F78091A5039091A6030E94B707B9
:1011300091E0813009F090E0892FDF91CF911F91EC
:101140000F91FF90EF90DF90CF90BF90AF900895F8
:101150000F931F93CF93DF93CDB7DEB729970FB6C9
:10116000F894DEBF0FBECDBF8C018091A503909196
:10117000A6030E94B707811102C080E01FC0BE0114
:101180006F5F7F4FC8010E945C088823B1F368E05D
:10119000CE0101960E94FA0699858913EECF8D81C2
:1011A0008F33B9F020F48F3141F789E007C08F35D4
:1011B00021F08F3711F78CE001C08BE029960FB634
:1011C000F894DEBF0FBECDBFDF91CF911F910F917D
:1011D00008958AE0F3CFCF93DF93EC01898D9A8D48
:1011E000892B41F0E881F9810284F385E02DCE015D
:1011F0000995F4CFDF91CF910895CF93DF931F929C
:10120000CDB7DEB76983DC01ED91FC910280F381FB
:10121000E02D41E050E0BE016F5F7F4F09950F90D8
:10122000DF91CF9108951F93CF93DF93FB01DC01F2
:1012300058961C921E9257972281211109C0238132
:10124000211106C02481211103C02581222339F1F7
:101250004115510521F1EA01DC011C961C91AF01F9
:101260004E5F5F4F612F6295660F607E645F24E082
:1012700030E08CE090E00E948A054D2F60E170E044
:10128000812F0E94F1064C2F61E170E0812F0E94B6
:10129000F10681E090E0DF91CF911F91089590E0F9
:1012A00080E0F9CFFC0185899689089522E831E034
:1012B000FC0131832083FB01418952896389748950
:1012C000FC0142835383648375830895DC01ED91AF
:1012D000FC91048CF58DE02D099480E00895CF9366
:1012E000DF931F92CDB7DEB76983DC01ED91FC91EE
:1012F0000280F381E02D41E050E0BE016F5F7F4F3F
:1013000009950F90DF91CF9108950895FC01948580
:10131000FB018485981303C081E0983009F480E0D4
:1013200008950895CF93DF931F92CDB7DEB76983F9
:10133000DC01ED91FC910280F381E02D41E050E071
:10134000BE016F5F7F4F09950F90DF91CF91089598
:10135000DC01ED91FC91028CF38DE02D099591E07B
:10136000892708959B018295880F807E68E0680F29
:10137000C9010C946B05CF93C82F462F61E070E034
:101380000E94F10661E070E08C2F0E94B209811189
:10139000F9CFCF910895CF93C82F60E170E00E94FC
:1013A000BB094FEF62E070E08C2FCF910C94F106F7
:1013B0000F931F93CF93DF93C82FD62F8A010E94DC
:1013C000CB094D2F70E060E08C2F0E94F1060115D3
:1013D0001105B9F0412F64E070E08C2F0E94F106F6
:1013E000402F65E070E08C2F0E94F10661E070E014
:1013F0008C2F0E94BB0981E0DF91CF911F910F914B
:1014000008950091490210914A020F5F1F4F1093F7
:101410004A0200934902DECFCF93DF93EC018C8523
:10142000883061F00E94CB09EC85F0E0EE0FFF1FE1
:10143000EB50FE4F1182108288E08C87DF91CF91B4
:101440000895CF92DF92EF92FF920F931F93CF9365
:10145000DF93D82E7B018A01C22E68E270E00E94E1
:10146000B209C82FD0E0DC2FCC2769E270E08D2DC7
:101470000E94B209C80FD11D6D2D6295660F607E66
:10148000685E9801A701CE010E943905C11016C0FF
:10149000C00FD11F4D2F68E270E08D2D0E94F10624
:1014A0004C2F69E270E08D2DDF91CF911F910F914C
:1014B000FF90EF90DF90CF900C94F106DF91CF91E9
:1014C0001F910F91FF90EF90DF90CF9008950F93B1
:1014D0001F93CF93DF931F92CDB7DEB78C01DC0152
:1014E000ED91FC910084F185E02D0995892B91F017
:1014F00021E041E050E0BE016F5F7F4FF80184853D
:101500000E94210A898190E00F90DF91CF911F9175
:101510000F9108958FEF9FEFF7CFCF93DF931F9237
:10152000CDB7DEB7FC01218D328D8FEF9FEF232BDE
:1015300059F021E041E050E0BE016F5F7F4F8485AC
:101540000E94210A898190E00F90DF91CF91089548
:10155000BF92CF92DF92EF92FF920F931F93CF93A0
:10156000DF93B82E6B017A01890164E270E00E947A
:10157000B209C82F65E270E08B2D0E94B209D0E05D
:10158000DC2FCC278C0D9D2D911DC80FD91F6B2DE5
:101590006295660F607E6C5E9801A701CE010E9485
:1015A0008A05C00FD11F4D2F64E270E08B2D0E9481
:1015B000F1064C2F65E270E08B2DDF91CF911F91EA
:1015C0000F91FF90EF90DF90CF90BF900C94F106B9
:1015D0001F93CF93DF93182F66E270E00E94B20949
:1015E000C82FD0E0DC2FCC2767E270E0812F0E946B
:1015F000B2098C0F9D2F911DDF91CF911F910895FE
:10160000FF920F931F93CF93DF93F82E10E000E02B
:101610008F2D0E94E80AEC01892B21F08F2D0E946A
:10162000E80A8C01C017D10799F7CE01DF91CF915D
:101630001F910F91FF900895FC018485883011F06F
:101640000C94000B90E080E008951F93CF93DF93FC
:10165000182F60E270E00E94B209C82FD0E0DC2FA2
:10166000CC2761E270E0812F0E94B2098C0F9D2F80
:10167000911DDF91CF911F910895FF920F931F93BA
:10168000CF93DF93F82E10E000E08F2D0E94250B02
:10169000EC01892B21F08F2D0E94250B8C01C017A6
:1016A000D10799F7CE01DF91CF911F910F91FF9054
:1016B0000895AF92BF92CF92DF92FF920F931F9344
:1016C000CF93DF938C015B01EA01FC01C788D08CCA
:1016D000F4848F2D0E943D0B8C179D0720F48F2DD5
:1016E0000E943D0BEC019E01A501B6018F2D0E94C9
:1016F000A80AF8018789908D8C0F9D1F908F878B8A
:10170000CE01DF91CF911F910F91FF90DF90CF908D
:10171000BF90AF900895FC018485883021F063E08C
:1017200070E00C94B20980E00895CF93DF93FC0140
:1017300024852830D9F0EC010E948B0B843189F08C
:10174000882379F0883169F021E08C3159F4E881FF
:10175000F9810084F185E02DCE01099521E0892BE6
:1017600009F420E0822FDF91CF91089580E0FBCF34
:10177000CF92DF92EF92FF92CF93DF93EC018C85B3
:10178000883089F168E070E00E94BB090E94530331
:101790006B017C01CE010E948B0B882391F00E948B
:1017A00053036C197D098E099F09683E73408105BA
:1017B000910538F461E070E080E090E00E94200341
:1017C000E9CFCE010E948B0B882319F08C850E94F3
:1017D000CB09EC85F0E0EE0FFF1FEB50FE4F1182BE
:1017E000108288E08C87DF91CF91FF90EF90DF909F
:1017F000CF9008954F925F926F927F928F929F92B7
:10180000AF92BF92CF92DF92EF92FF921F93CF934E
:10181000DF93CDB7DEB72D970FB6F894DEBF0FBEBE
:10182000CDBF7C0195EFA92E91E0B92E10E0D12C0F
:10183000C12C28EE422E23E0522E612C712C3AE36B
:10184000832E31E0932E1C821B824D825E826F823A
:1018500078869A8289821D87D5012D913D915D01FF
:10186000F7018481958128173907B1F4CE010196DB
:101870000E948B0B843199F1CE0101960E948B0B53
:101880008C3151F4CE0101960E941C0B892B21F45E
:10189000CE0101960E94B80B1F5F1830A1F6CD282B
:1018A00041F4D701ED91FC910084F185E02DC70151
:1018B00009952D960FB6F894DEBF0FBECDBFDF9110
:1018C000CF911F91FF90EF90DF90CF90BF90AF909E
:1018D0009F908F907F906F905F904F900895CC2451
:1018E000C394D12CD9CFCF92DF92EF92FF921F9366
:1018F000CF93DF93182F6B017A010E94000BEC014C
:101900000097D9F463E070E0812F0E94B20984311E
:1019100059F0882349F0C1E0D0E08C3111F4D0E0D7
:10192000C0E0D195C195D109CE01DF91CF911F9132
:10193000FF90EF90DF90CF900895E816F9060CF431
:10194000E7011C161D0684F720E0AE01B601812FC9
:101950000E94210A60E470E0812F0E94BB09E4CF5D
:10196000CF93DF93FC01218D328D2115310529F4B0
:101970008FEF9FEFDF91CF910895EC01848542179F
:10198000530708F0A9010E94730C1816190684F772
:10199000298D3A8D281B390B3A8F298FEBCF0F9366
:1019A0001F93CF93DF931F92CDB7DEB7FC01218D3C
:1019B000328D232B41F48FEF9FEF0F90DF91CF916A
:1019C0001F910F9108958C0141E050E0BE016F5FBF
:1019D0007F4FFC0184850E94730C181619065CF772
:1019E000F801818D928D0197928F818F898190E08E
:1019F000E4CFFC0184850C94730CCF93DF931F928A
:101A0000CDB7DEB741E050E0BE016F5F7F4FFC0114
:101A100084850E94730C1816190634F4898190E0AD
:101A20000F90DF91CF9108958FEF9FEFF9CFCF9374
:101A3000FC01C48560E270E08C2F0E94BB0962E06B
:101A400070E08C2F0E94B20984FD11C062E070E04A
:101A50008C2F0E94B20983FFF2CF48E162E070E070
:101A60008C2F0E94F10690E080E0CF91089540E134
:101A700062E070E08C2F0E94F10681E090E0F5CFEB
:101A8000EF92FF921F93CF93DF93FC0124852830C0
:101A900039F080E0DF91CF911F91FF90EF90089592
:101AA0007B01EC0110E063E070E0812F0E94B2093D
:101AB00081110EC01C878C85883059F3FE86ED8617
:101AC0001A8E198EA70162E00E94D80981E0E2CF48
:101AD000883181F31F5F183031F7EDCF8F929F92DD
:101AE000AF92BF92CF92DF92EF92FF920F931F932C
:101AF000CF93DF93CDB7DEB72D970FB6F894DEBF47
:101B00000FBECDBF7C0110E000E038EE832E33E045
:101B1000932EA12CB12C4AE3C42E41E0D42E1C827A
:101B20001B828D829E82AF82B886DA82C9820D873F
:101B3000CE0101960E948B0B811130C0F7014481C8
:101B4000558161E0802F0E94D80963E070E0802F0A
:101B50000E94B209833129F462E070E0802F0E9474
:101B6000BB09F70184819581000F111FF801EB502B
:101B7000FE4F918380832D960FB6F894DEBF0FBE83
:101B8000CDBFDF91CF911F910F91FF90EF90DF902C
:101B9000CF90BF90AF909F908F9008950F5F1F4F91
:101BA0000830110509F0BBCFE6CF8F929F92AF921C
:101BB000BF92CF92DF92EF92FF920F931F93CF933A
:101BC0006C015B017A01FC01C485C830A1F481E09D
:101BD00090E0F60193838283F12CE12CC701CF9131
:101BE0001F910F91FF90EF90DF90CF90BF90AF903B
:101BF0009F908F9008958A014130584010F000E086
:101C000018E08C2F0E943D0B4C0163E070E08C2F9C
:101C10000E94B209873111F08C3109F580169106C6
:101C200080F39801A50170E060E08C2F0E94A80A63
:101C300060E270E08C2F0E94BB0962E070E08C2FA4
:101C40000E94B20984FD0EC063E070E08C2F0E94F8
:101C5000B2098111F2CF8C2F0E94CB09B8CF10E0CE
:101C600000E0DFCF40E162E070E08C2F0E94F106DF
:101C7000012B09F0B3CFABCF3F924F925F926F929F
:101C80007F928F929F92AF92BF92CF92DF92EF920C
:101C9000FF920F931F93CF93DF93CDB7DEB72D97AE
:101CA0000FB6F894DEBF0FBECDBF6C015B014A01D9
:101CB0000E94FA0B85EFE82E81E0F82E312C10E01F
:101CC00000E098EE492E93E0592E612C712C1C8275
:101CD0001B824D825E826F8278868AE391E09A83CE
:101CE00089833D86F701219131917F01F60184813D
:101CF00095812817390771F4CE0101960E948B0B4C
:101D0000873141F4A401B501CE0101960E94D50DA1
:101D1000080F191F3394F8E03F12D9CFC8012D9650
:101D20000FB6F894DEBF0FBECDBFDF91CF911F91EC
:101D30000F91FF90EF90DF90CF90BF90AF909F906A
:101D40008F907F906F905F904F903F900895DF92BB
:101D5000EF92FF920F931F93CF93DF93FC012485A3
:101D6000283051F090E080E0DF91CF911F910F91EA
:101D7000FF90EF90DF9008957A01EB018C01D12C58
:101D800063E070E08D2D0E94B209811128C0F80136
:101D9000D486F8018485883029F3209100013091A0
:101DA00001012F5F3F4F19F1309301012093000192
:101DB000409100015091010161E00E94D8098A819F
:101DC0008F3FC1F48B818F3F01F58C818F3FE9F408
:101DD0008D818F3FD1F488E0F8018487C3CF8B7F5A
:101DE0008831A9F2D394F8E0DF12CACFD2CF20E035
:101DF00034E0DACF811109C08B81811106C08C815A
:101E0000811103C08D81882331F3E114F10419F3AA
:101E1000F801D484AE014E5F5F4F6D2D6295660F61
:101E2000607E645F24E030E08CE090E00E948A05F0
:101E30004F2D60E170E08D2D0E94F1064E2D61E185
:101E400070E08D2D0E94F10664E070E08D2D0E94FF
:101E5000BB09C8010E948B0B873161F061E070E023
:101E600080E090E00E942003C8010E948B0B81114A
:101E7000F0CFB1CF81E090E077CF90E080E008959F
:101E8000BF92CF92DF92EF92FF920F931F93CF9367
:101E9000DF93EC01B62EC72E8D85811105C0CE01D2
:101EA0000E94B70781110EC01B861D861C8680E02C
:101EB000DF91CF911F910F91FF90EF90DF90CF9026
:101EC000BF90089540E060EFCE010E94640701E0FA
:101ED000E12CD12C11E0CE010E941107F82ECE0189
:101EE0000E94110791E0F91218C0813099F5113460
:101EF000D8F2DB86D11002C081E08D878B818823E8
:101F000099F22396EB2DFC2DCF0108962991219370
:101F1000E817F907D9F781E0CBCFEE2DF0E0F81202
:101F20000FC08B851817A0F4DE01AE0FBF1F1396EC
:101F30008C91802379F4F12C193008F41C87D12E70
:101F4000EC0FFD1F8381902F9095892383830AC016
:101F50008113F1CFFE01EE0DF11D8381802B838370
:101F6000FF24F3946F2DCE010E9435071F5F000FF1
:101F700011F4E39401E087E08E1508F0ACCFB7CF01
:101F8000FB0101900020E9F73197AF01461B570B89
:101F9000DC01ED91FC910280F381E02D09948F9298
:101FA0009F92AF92BF92EF92FF920F931F93CF93A6
:101FB000DF93CDB7DEB7A1970FB6F894DEBF0FBEA3
:101FC000CDBF7C01FA01CB0119A2223008F42AE02E
:101FD0008E010F5D1F4F822E912CB12CA12CBF01C1
:101FE000A50194010E94DA2AF901CA016A300CF5B0
:101FF000605DD8016E938D01232B242B252B79F75F
:1020000090E080E0109721F0BD01C7010E94C00F51
:10201000A1960FB6F894DEBF0FBECDBFDF91CF9172
:102020001F910F91FF90EF90BF90AF909F908F9076
:102030000895695CDECF8F929F92AF92BF92CF924C
:10204000DF92EF92FF920F931F93CF93DF937C0168
:10205000EB016C0182E0C80ED11C4701E5E08E0E59
:10206000911C10E000E0F60141916F0150E070E03A
:1020700060E02AE0CE010E94CF0F5C01E881F98187
:102080000190F081E02D6EE2CE0109958A0D9B1D35
:10209000080F191FC814D90431F7F701458150E022
:1020A00070E060E02AE0CE010E94CF0F800F911F08
:1020B000DF91CF911F910F91FF90EF90DF90CF9024
:1020C000BF90AF909F908F90089564E871E00C945A
:1020D000C00FCF93DF93D0E0C0E0009731F0BC0198
:1020E00085EA92E00E94C00FEC0185EA92E00E942E
:1020F00065108C0F9D1FDF91CF9108950F931F9353
:10210000CF93DF93EC010E945F038C01CE010E940C
:102110006510800F911FDF91CF911F910F9108954E
:102120000F931F93CF93DF93EC01888199810097E0
:1021300059F02A813B812617370730F081E0DF9183
:10214000CF911F910F9108958B016F5F7F4F0E9478
:10215000552B009759F0998388831B830A832C8120
:102160003D81232B59F7FC011082E8CF80E0E7CFB7
:10217000EF92FF920F931F93CF93DF93EC017B01BC
:10218000CB010E94DB260097A9F00C811D81080F6E
:10219000191FB801CE010E949010882361F0288198
:1021A00039818C819D81B701820F931F0E94D426B3
:1021B0001D830C8381E0DF91CF911F910F91FF90E0
:1021C000EF900895EF92FF920F931F93CF93DF93B9
:1021D0006115710541F480E0DF91CF911F910F915E
:1021E000FF90EF90089541155105B1F07B01EC018E
:1021F0000C811D81040F151FB8010E9490108823C7
:1022000051F3288139818C819D81B701820F931F01
:102210000E946B2C1D830C8381E0DECFEF92FF9236
:102220000F931F93CF93DF93CDB7DEB72D970FB6E4
:10223000F894DEBF0FBECDBF7C01CB01BA012AE00E
:102240008E010F5F1F4FA8010E94EF26F801019039
:102250000020E9F73197AF01401B510BB801C701CE
:102260000E94E2102D960FB6F894DEBF0FBECDBFD0
:10227000DF91CF911F910F91FF90EF900895EF9212
:10228000FF920F931F93CF93DF93CDB7DEB72897BD
:102290000FB6F894DEBF0FBECDBF7C01CB014AE084
:1022A0008E010F5F1F4FB8010E94E426F8010190D4
:1022B0000020E9F73197AF01401B510BB801C7016E
:1022C0000E94E21028960FB6F894DEBF0FBECDBF75
:1022D000DF91CF911F910F91FF90EF900895EF92B2
:1022E000FF920F931F93CF93DF93EC017B018A0141
:1022F000BA010E94901028813981811114C02115E2
:10230000310519F0C9010E940A26198218821D821E
:102310001C821B821A82CE01DF91CF911F910F91F7
:10232000FF90EF9008951D830C83B701C9010E94AF
:102330006B2CF1CF0E94122C0F931F93CF93DF933E
:10234000EC018B01CB010E944D2C815691098A3101
:10235000910508F05EC0FC01E055FE4E0C943B2B4D
:10236000CA110912DF11E311091209120912091227
:10237000091209120912EA11091209120912EE11C1
:1023800009120912F2110912F6110912FA11FE11BD
:1023900009120212CE010E94242CEC01C8010E94F5
:1023A000252C892B31F491E080E0CD2BB9F5C92F94
:1023B000D82FCE01DF91CF911F910F910895CE01BB
:1023C0000E94382CEACFE09791E080E02A97F0F065
:1023D00090E01CC0CE010E94252CDFCFCE010E94D0
:1023E000402CDBCFCE010E946229D7CFCE010E94C4
:1023F000212CD3CFCE010E94172CCFCFCE010E942B
:102400002C2CCBCF91E080E0CD2B11F7C92FD82F0A
:10241000C5CF91E080E00C171D0749F290E0C7CFCF
:10242000CF92DF92EF92FF920F931F93CF93DF93A0
:102430008C01FB017A018181C1E0D0E08E3519F475
:102440003196D0E0C0E09F012F5F3F4F2E153F0532
:1024500080F5818162818532A1F46F0142E0C40E72
:10246000D11C70E0C8010E949C11892BD9F0CE01CB
:10247000DF91CF911F910F91FF90EF90DF90CF9060
:10248000089590E06D3281F46F0143E0C40ED11CD9
:10249000CE14DF0448F40817190724F0838180174D
:1024A00011062CF7F601CFCF0817190701F36901C0
:1024B000F9CF81E0C827DBCFFC01DB013C913E3244
:1024C000A1F03B3539F0353249F411966C9170E04A
:1024D0000C949C11415051090C94101281E090E031
:1024E0003E171F0621F080E0089581E090E00895F6
:1024F000682F880F770B8BE492E00E94B326DC01F3
:10250000FC0131968C91853221F08B3561F0CF0141
:10251000089511968C911197FD0132968111F7CF94
:102520008DEF0E94781211968C9111978E3511F4CF
:10253000FD0132968081811102C08CEFF2CFDF0164
:1025400011969181853211F4911111968C91FD01B2
:102550008D3581F73196DBCF6F927F928F929F926C
:10256000AF92BF92CF92DF92EF92FF920F931F93A1
:10257000CF93DF938C017A01EB01D7018C918532E7
:1025800009F4B6C04CF5882309F492C0843209F4EA
:1025900052C1C7010E947F126C01F80185819681AA
:1025A000C817D90748F48881A601B70190E00E94B6
:1025B0005C1221E0892B09F420E0D6018C918B324A
:1025C00009F495C10CF044C18A3209F47CC122237C
:1025D00009F4C5C02196DDC08832B9F18932C9F647
:1025E000A7014F5F5F4FD8011B96ED91FC91CF0182
:1025F0000197EE0FFF1FEE0FFF1FE00FF11F97FD7A
:1026000075C03497A784B088BFEFAB16BB0609F03E
:102610006BC0880F991F880F991F6801C80ED91EBB
:10262000F601858596859E01281B390B308B2787FF
:10263000BE01C8010E94AC12EC01892BC9F5D6017C
:102640005096BC92AE921F9733C0F8018385948553
:1026500011964C91FC01EE0FFF1FEE0FFF1F9C0126
:102660002F5F3F4F4932A1F5A7014E5F5F4F809723
:102670001CF08AEF0E947812E00FF11FD687C58701
:102680008EEF9FEF908B8787F80134872387BE01F9
:10269000C8010E94AC12EC01892B51F4D8011B96A1
:1026A0008D919C911C9701971C969C938E931B97E0
:1026B000CE01DF91CF911F910F91FF90EF90DF90AE
:1026C000CF90BF90AF909F908F907F906F90089524
:1026D000A7014F5F5F4F809764F6E00FF11FD68729
:1026E000C5878FEF9FEFCECF019789CF8EEFC2CFF7
:1026F000F7018181823629F1863609F451C090E0D4
:102700009C01205331092A30310508F042CFC1978E
:1027100097FD15C0D8011B962D913C918217930708
:1027200074F4880F991F880F991FF801E80FF91F9B
:10273000C784D088BFEFCB16DB0609F05FC08FEFF0
:1027400099CF12962C911297222321F013963C9147
:10275000311102C08BEF8ECF8881281719F0D0E09D
:10276000C0E0A6CFD8011596ED91FC9181E090E0F4
:10277000AE014F5F5F4F4E175F0788F769813613D1
:102780000AC0019759F4229651F36701B4E0CB0EC9
:10279000D11C7601F2CE261301C00196EA01E8CFE2
:1027A0005701E2E0AE0EB11C12968C918B3511F000
:1027B00089EF60CFC5010E947F126C01F801818111
:1027C00092818C179D07C1F0FE01319780817601BF
:1027D000F1E0EF1AF108A701B50190E00E94101294
:1027E000892B09F0BCCF8881A701B50190E00E9438
:1027F0001012892B71F6B3CF80E0E9CFD80115967E
:102800008D919C918C1B9D0B8C159D0508F4A7CF79
:10281000A601BE01858596850E94552C892B09F05D
:102820009ECFCC0DDD1D209709F499CF6701B2E052
:10283000CB0ED11CAECFF70181818111AACED80178
:1028400015968D919C918C179D0709F431CF87CFF8
:102850008D32A9F08F3309F0BACEEFEFCE1ADE0A2F
:10286000222309F496CFA601BE016F5F7F4FC801F6
:102870000E94AC12009709F48CCFEC0119CF4E01E5
:102880005601BFEFAB1ABB0A3401A501B401C80160
:102890000E94AC12EC01892B09F00ACFD8011596E1
:1028A0008D919C918816990608F059CFBFEF8B1A2D
:1028B0009B0AF3018081A601B70190E00E945C129F
:1028C000892B11F74CCF9601A701BE01C801DF91FA
:1028D000CF911F910F91FF90EF90DF90CF90BF901D
:1028E000AF909F908F907F906F900C94D91422237B
:1028F00009F435CFBE016F5F7F4F9601A701E6CF88
:10290000FF920F931F93CF93DF9300D0CDB7DEB725
:102910009A8389838BE492E00E949326F82EE981C2
:10292000FA81882351F080838F2D0F900F90DF91D3
:10293000CF911F910F91FF90089501811281011590
:10294000110519F488EF0E947812E981FA818381D8
:102950009481800F911F96838583E981FA81148683
:10296000138647E851E0B801CF010E94AC120097EE
:10297000A1F0E981FA8121813281A801421B530B28
:1029800050874783801B910B9287818781E08083EA
:10299000FF24F394C9CF8901E0CF98012F5F3F4F07
:1029A000E981FA818581968108171907A0F31082C1
:1029B000BBCF6F927F928F929F92AF92BF92CF9236
:1029C000DF92EF92FF920F931F93CF93DF935C01FF
:1029D0006B014A017901FC0165807680EB018E0173
:1029E0000C191D09FE01C615D70548F421968081F2
:1029F000A701B40190E00E945C12892B81F7FFEFE0
:102A0000EF1AFF0AA701B601600F711FC5010E94EE
:102A1000AC12009719F401501109A0F7DF91CF9182
:102A20001F910F91FF90EF90DF90CF90BF90AF90EC
:102A30009F908F907F906F9008950F931F93CF93E7
:102A4000DF93CDB7DEB728970FB6F894DEBF0FBE81
:102A5000CDBF8C01DC01ED91FC910680F781E02D6A
:102A60000995F80184850E94000B892BB1F148E09B
:102A700050E0BE016F5F7F4FD8011C968C910E9481
:102A8000730C18161906F4F4D801519684E0FE016F
:102A9000319601900D928A95E1F78D8190E0982F03
:102AA00088272E81820F911DF801968B858B8F814F
:102AB000282F30E0322F22278885820F932F911DF7
:102AC000928F818F28960FB6F894DEBF0FBECDBFD0
:102AD000DF91CF911F910F91089590E080E0F2CFA8
:102AE0004F925F926F927F928F929F92AF92BF921E
:102AF000CF92DF92EF92FF920F931F93CF93DF93CA
:102B0000CDB7DEB763970FB6F894DEBF0FBECDBF6B
:102B10007C016B013A01FB01DB018D918111FDCF3D
:102B200030E020E090E080E05AE04191442301F160
:102B3000843091050CF042C04E3269F42F3F3105CC
:102B400009F0E4F5D301A80FB91F12962C93019652
:102B500030E020E0EACF529FB001539F700D112466
:102B6000242F440F330B20533109260F371FDDCF9D
:102B70002F3F310509F014F584309105FCF4680EFF
:102B8000791EF3012283CC24C394D12CC601639611
:102B90000FB6F894DEBF0FBECDBFDF91CF911F916E
:102BA0000F91FF90EF90DF90CF90BF90AF909F90EC
:102BB0008F907F906F905F904F900895F7014281C2
:102BC00053816481758180919B0290919C02A091B8
:102BD0009D02B0919E02481759076A077B0709F4C6
:102BE00000C28701085F1F4F0E9453036F70772751
:102BF0007C5FC8010E94400D813009F0F7C182E876
:102C000091E09A838983F70182819381A481B581C0
:102C10008B839C83AD83BE8345E350E0BE016F5F31
:102C20007F4FC8010E941309892B31F4D12CC12C8C
:102C3000C8010E940C0AAACF0E945303F7017783B0
:102C4000668342E050E0B7016A5F7F4FC8010E948F
:102C5000590B81E090E09A83898342E050E0BE0105
:102C60006F5F7F4FC8010E94590B80E091E09A830B
:102C7000898342E050E0BE016F5F7F4FC8010E9430
:102C8000590B1A82198242E050E0BE016F5F7F4FFC
:102C9000C8010E94590B42E050E0BE016F5F7F4FB8
:102CA000C8010E94590B42E050E0BE016F5F7F4FA8
:102CB000C8010E94590B5601F6018081882301F159
:102CC0006501F60181912F01882311F08E32B1F454
:102CD00046018A189B081814190474F48D8641E083
:102CE00050E0BE01635F7F4FC8010E94590BA401F1
:102CF000B501C8010E94590B5201DECF6201E1CF3C
:102D00001D8641E050E0BE01635F7F4FC8010E9415
:102D1000590BC12CDD24D394DA82C98242E050E001
:102D2000BE016F5F7F4FC8010E94590BDA82C982D2
:102D300042E050E0BE016F5F7F4FC8010E94590B17
:102D4000C8010E94170D892B09F470CFF3E0AF2E54
:102D5000B12C230122E0420E511C43C0F7014281F5
:102D6000538164817581818D928DA38DB48D4817B7
:102D700059076A077B0709F02AC1858D968DC5978B
:102D800009F025C181A192A10C970CF425C14CE05A
:102D900050E0BE016F5F7F4FC8010E94B00C8B8175
:102DA0009C819827892798279A8B898BF7014681E0
:102DB000578129813A814217530711F497FD2FC09B
:102DC000C8010E94EB08ECEFCE2EDD24DA9481E0FE
:102DD000A81AB10809F42CCFFFEFCF16DF0609F0CF
:102DE00027CF0E9453033B014C01C8010E941D15CF
:102DF000181619060CF4B2CF0E945303661977090E
:102E000088099909693873418105910508F0DBC08B
:102E100062E370E080E090E00E942003E6CF8F70D4
:102E20009270892B41F0C8010E94EB087BEFC72EFE
:102E3000DD24DA94CCCF6F807884762467247624DE
:102E4000D12CC12C61147104D1F4C8010E94EB088B
:102E50006AEFC62EDD24DA94BACF8D85811117C0B2
:102E6000C8010E94CF0CC8010E94CF0CC8010E946B
:102E7000CF0CC8010E94CF0CFFEFCF1ADF0A8D8163
:102E80009E81982789279827C816D906A8F441E07B
:102E900050E0BE01635F7F4FC8010E94B00C8D857A
:102EA0008823D9F28D859FEF980F9D878823A9F2FB
:102EB000C8010E94CF0CF6CF912C812C41E050E04C
:102EC000BE016D5E7F4FC8010E94B00C8B89982FA8
:102ED000907C61F4882389F08B899FEF980F9B8BFE
:102EE000882341F0C8010E94CF0CF6CFC8010E9490
:102EF000CF0C1B8A8B898111E1CF42E050E0BE01EB
:102F0000615F7F4FC8010E94B00C42E050E0BE01FB
:102F1000635F7F4FC8010E94B00CC8010E94CF0CB4
:102F2000C8010E94CF0CC8010E94CF0CC8010E94AA
:102F3000CF0C42E050E0BE016F5E7F4FC8010E949F
:102F4000B00C8F85988981159140E9F4CD84DE8499
:102F5000DC24CD24DC2481E0C816D104A1F48989C5
:102F60009A898115944041F0C8010E94EB0857EFFF
:102F7000C52EDD24DA942BCF44E050E0B201C80125
:102F80000E94B00C24CFD12CC12C89899A89982712
:102F900089279827C816D90638F4C8010E94CF0C93
:102FA000FFEFCF1ADF0AF1CF2FEF821A920A6814CF
:102FB000790409F083CFC8010E94EB0846EFC42EC4
:102FC000DD24DA9404CFCC24CA94DC2C00CF2EEF7D
:102FD000C22EDD24DA94FBCE9DEFC92EDD24DA94D7
:102FE000F6CE8EEFC82EDD24DA94D0CDD12CC12CB4
:102FF000CDCDCF92DF92EF92FF920F931F93CF939D
:10300000DF93CDB7DEB7AF970FB6F894DEBF0FBE34
:10301000CDBF7C016A0102E811E01A8309831C8696
:103020001B8688EE93E0A0E0B0E08D879E87AF8797
:10303000B88B82E191E09A87898788E08D8B198F20
:10304000088F1A8E1B8E1C8E1D8E1BA70AA71CA60E
:103050001DA61EA61FA68091580390915903A0910A
:103060005A03B0915B038EA39FA3A8A7B9A78B8334
:103070009C83AD83BE8318861F82AE01465D5F4F81
:10308000CE0101960E94701581309105B1F4D701EF
:10309000ED91FC910488F589E02D1DA30CA38CA56E
:1030A0009DA5AEA5BFA58EA39FA3A8A7B9A7A6015E
:1030B000BE016C5D7F4FC7010995AF960FB6F894BE
:1030C000DEBF0FBECDBFDF91CF911F910F91FF905B
:1030D000EF90DF90CF900895CF92DF92EF92FF9222
:1030E0000F931F93CF93DF93CDB7DEB7AF970FB694
:1030F000F894DEBF0FBECDBF7C016A0102E811E08B
:103100001A8309831C861B8688EE93E0A0E0B0E05A
:103110008D879E87AF87B88B82E191E09A878987F8
:1031200088E08D8B198F088F1A8E1B8E1C8E1D8E3A
:103130001BA70AA71CA61DA61EA61FA680915803A2
:1031400090915903A0915A03B0915B038EA39FA362
:10315000A8A7B9A78B839C83AD83BE8318861F82E3
:10316000AE01465D5F4FCE0101960E947015813021
:103170009105B1F4D701ED91FC910684F785E02D1E
:103180001DA30CA38CA59DA5AEA5BFA58EA39FA333
:10319000A8A7B9A7A601BE016C5D7F4FC70109951D
:1031A000AF960FB6F894DEBF0FBECDBFDF91CF91C3
:1031B0001F910F91FF90EF90DF90CF9008950F93A4
:1031C0001F93CF93DF93CDB7DEB7C15FD1090FB6A1
:1031D000F894DEBF0FBECDBF8C0162E971E085EAD5
:1031E00092E00E94C00FF801448155816081718195
:1031F00085EA92E00E94830385EA92E00E946510CE
:10320000198281EA91E09B838A838CE090E09D8320
:103210008C83CE0101960E9480148130B9F58EEA2C
:1032200091E00E9469108981813051F48C859D85DF
:10323000181619062CF40889198910161106B4F00D
:10324000C257DF4F1882CE58D040CE0182579F4FD1
:103250000E946910CF50DF4F0FB6F894DEBF0FBE4B
:10326000CDBFDF91CF911F910F9108956E857F851E
:10327000A801CE0182579F4F0E94622CEEE8F0E039
:10328000EC0FFD1FE00FF11F1082DFCF811103C093
:1032900086EB91E0DDCF8FEB91E0DACF1F920F92BA
:1032A0000FB60F9211242F933F938F939F93AF9359
:1032B000BF9380913F0290914002A0914102B09152
:1032C000420230913E0223E0230F2D3758F501963C
:1032D000A11DB11D20933E0280933F0290934002B6
:1032E000A0934102B0934202809143029091440224
:1032F000A0914502B09146020196A11DB11D809397
:10330000430290934402A0934502B0934602BF91BA
:10331000AF919F918F913F912F910F900FBE0F9082
:103320001F90189526E8230F0296A11DB11DD2CF3C
:103330001F920F920FB60F9211242F933F934F932A
:103340005F936F937F938F939F93AF93BF93EF930D
:10335000FF9385EA92E00E949504FF91EF91BF915F
:10336000AF919F918F917F916F915F914F913F911D
:103370002F910F900FBE0F901F9018951F920F92D4
:103380000FB60F9211242F938F939F93EF93FF9378
:10339000E091B502F091B6028081E091BB02F0911C
:1033A000BC0282FD1BC090818091BE028F5F8F7333
:1033B0002091BF02821741F0E091BE02F0E0EB5590
:1033C000FD4F958F8093BE02FF91EF919F918F915A
:1033D0002F910F900FBE0F901F9018958081F4CF02
:1033E0001F920F920FB60F9211242F933F934F937A
:1033F0005F936F937F938F939F93AF93BF93CF937D
:10340000DF93EF93FF938091F401C0918D03D0E09F
:1034100087FF24C010928500109284008091F401EF
:103420008F5F8093F4018091F401082E000C990BBA
:103430008C179D0724F48091F4018C30C4F18091A5
:10344000840090918500049680349C4908F47AC0E9
:103450008091840090918500049676C08091F4015B
:10346000082E000C990B8C179D07C4F6E091F4010F
:103470008E2FEE0F990BFC01EE0FFF1FE80FF91FC7
:10348000E759FC4F808186FFC9CFE091F4018E2F70
:10349000EE0F990BFC01EE0FFF1FE80FF91FE75924
:1034A000FC4F808160E08F730E947E02B7CF209135
:1034B000840030918500E091F4018E2FEE0F990B7E
:1034C000FC01EE0FFF1FE80FF91FE759FC4F818148
:1034D0009281820F931F9093890080938800E091DE
:1034E000F4018E2FEE0F990BFC01EE0FFF1FE80F7A
:1034F000F91FE759FC4F808186FF11C0E091F4016C
:103500008E2FEE0F990BFC01EE0FFF1FE80FF91F36
:10351000E759FC4F808161E08F730E947E02FF912A
:10352000EF91DF91CF91BF91AF919F918F917F915B
:103530006F915F914F913F912F910F900FBE0F9020
:103540001F90189580E49CE99093890080938800EF
:103550008FEF8093F401E3CF1F920F920FB60F927B
:1035600011242F933F934F935F936F937F938F9388
:103570009F93AF93BF93CF93EF93FF9399B1C09174
:1035800066028091960230919302292F2095232381
:103590008923822B20916D00C927C223C8239093D1
:1035A0006602CC23C1F1C0FF05C0E0916702F09133
:1035B00068020995C1FF05C0E0916902F0916A02B5
:1035C0000995C2FF05C0E0916B02F0916C0209956C
:1035D000C3FF05C0E0916D02F0916E020995C4FF32
:1035E00005C0E0916F02F09170020995C5FF05C01A
:1035F000E0917102F09172020995C6FF05C0E09159
:103600007302F09174020995C7FF05C0E09175023D
:10361000F09176020995FF91EF91CF91BF91AF9113
:103620009F918F917F916F915F914F913F912F91DA
:103630000F900FBE0F901F9018951F920F920FB60C
:103640000F9211242F933F934F935F936F937F9328
:103650008F939F93AF93BF93CF93EF93FF9396B1C5
:10366000C09177028091970230919402292F209582
:1036700023238923822B20916C00C927C223C823CE
:1036800090937702CC2351F1C0FF05C0E0917802FE
:10369000F09179020995C1FF05C0E0917A02F0919D
:1036A0007B020995C2FF05C0E0917C02F0917D028A
:1036B0000995C3FF05C0E0917E02F0917F02099554
:1036C000C4FF05C0E0918002F09181020995C5FF19
:1036D00005C0E0918202F09183020995FF91EF917C
:1036E000CF91BF91AF919F918F917F916F915F919A
:1036F0004F913F912F910F900FBE0F901F901895F3
:103700001F920F920FB60F9211242F933F934F9356
:103710005F936F937F938F939F93AF93BF93CF9359
:10372000EF93FF9393B1C0918602809198023091FC
:103730009502292F209523238923822B20916B002A
:10374000C927C223C82390938602CC2351F1C0FF1E
:1037500005C0E0918702F09188020995C1FF05C07C
:10376000E0918902F0918A020995C2FF05C0E091BB
:103770008B02F0918C020995C3FF05C0E0918D0288
:10378000F0918E020995C4FF05C0E0918F02F0917F
:1037900090020995C5FF05C0E0919102F091920257
:1037A0000995FF91EF91CF91BF91AF919F918F912B
:1037B0007F916F915F914F913F912F910F900FBE2D
:1037C0000F901F9018951F920F920FB60F92112411
:1037D0002F933F934F935F936F937F938F939F9319
:1037E000AF93BF93EF93FF93E0916402F091650272
:1037F0000995FF91EF91BF91AF919F918F917F912B
:103800006F915F914F913F912F910F900FBE0F904D
:103810001F9018951F920F920FB60F9211242F939D
:103820003F934F935F936F937F938F939F93AF9348
:10383000BF93EF93FF93E0916202F09163020995C9
:10384000FF91EF91BF91AF919F918F917F916F9178
:103850005F914F913F912F910F900FBE0F901F904E
:103860001895CF9382E891E090939A028093990201
:1038700010929B0210929C0210929D0210929E0246
:103880009093A00280939F021092A1021092A20234
:103890001092A3021092A4021092A8021092A70202
:1038A00048EE53E060E070E04093A9025093AA0212
:1038B0006093AB027093AC0222E631E03093A60233
:1038C0002093A50225EC30E03093B2022093B102A0
:1038D00024EC30E03093B4022093B30220EC30E0CB
:1038E0003093B6022093B50221EC30E03093B80259
:1038F0002093B70222EC30E03093BA022093B90251
:1039000026EC30E03093BC022093BB021092BE0242
:103910001092BF021092C0021092C10220E52093C3
:103920004203C1E0C0934303909345038093440353
:1039300010924603109247031092480310924903D5
:1039400090934B0380934A0310924C0310924D03C3
:1039500010924E0310924F039093510380935003A3
:103960001092520310925303109254031092550375
:10397000909364038093630310926503109266032F
:103980001092670310926803909357038093560335
:10399000109258031092590310925A0310925B032D
:1039A00010926103109260032AE0209362039093C7
:1039B000CE038093CD031092CF031092D0031092C8
:1039C000D1031092D2039093C8038093C70380EC75
:1039D0008093C90388EA8093CA03C093CB0381E72D
:1039E0008093CC031092C4031092C30384E791E048
:1039F0009093C2038093C10381EB9CE99093C6032B
:103A00008093C50360E089E00E94CA02E0E4F3E02D
:103A1000E491E093B303ECE2F3E0E491F0E0EE0F25
:103A2000FF1FE75EFC4F859194919093B5038093BF
:103A3000B4031092BE031092C0031092BF03109201
:103A4000BD031092BC031092BB031092BA031092F4
:103A5000B9031092B8031092B7031092B60383EB28
:103A600093E09093A6038093A5031092A303109272
:103A7000A40310929F0389E08093A003C093A10345
:103A8000C093A2031092B2031092B103109291035B
:103A90001092920310929303109294031092950344
:103AA00010929603109297031092980310929A0323
:103AB0001092990310929B0310929C0381E090E076
:103AC00090939E0380939D0380918D038C30A0F48E
:103AD00091E0980F90938D0380938E0390E0FC010A
:103AE000EE0FFF1FE80FF91FE759FC4F88EB9BE033
:103AF00092838183CF9108958FEF80938E03FACFC5
:103B0000CF93DF93CDB7DEB7CD54D1090FB6F8947C
:103B1000DEBF0FBECDBF789484B5826084BD84B50E
:103B2000816084BD85B5826085BD85B5816085BDB8
:103B300080916E00816080936E0010928100809170
:103B400081008260809381008091810081608093F8
:103B50008100809180008160809380008091B1001D
:103B600084608093B1008091B00081608093B00048
:103B700080917A00846080937A0080917A008260DC
:103B800080937A0080917A00816080937A0080919E
:103B90007A00806880937A001092C100E091B502AB
:103BA000F091B60282E08083E091B102F091B2021E
:103BB0001082E091B302F091B4028FEC80831092F6
:103BC000BD02E091B902F091BA0286E08083E091F3
:103BD000B702F091B802808180618083E091B702E2
:103BE000F091B802808188608083E091B702F09103
:103BF000B802808180688083E091B702F091B802BA
:103C000080818F7D808384EC91E00E9469106DEA51
:103C100071E085EA92E00E945F03AE014F5F5F4F63
:103C20006A018091D3039091D403009711F487ED3A
:103C300093E02601481A590A052C000C66087708FB
:103C40002AE0B301A20177FE0DC06DE285EA92E0A1
:103C50000E94B70444275527BA014419550966093B
:103C600077092AE085EA92E00E94CF0F85EA92E088
:103C70000E94651002E811E01A8309838091C9034C
:103C80009091CA03A091CB03B091CC038B839C830A
:103C9000AD83BE83C6010E94DD056CE971E085EA53
:103CA00092E00E947E1062E871E085EA92E00E9454
:103CB0005F031A8309831B821C821D821E8224E0FB
:103CC00030E0AE014D5F5F4F60E08FE090E00E941A
:103CD000390565EA72E0C6010E941B1085EA92E090
:103CE0000E94651081EC93E00E946E0DE091A503A7
:103CF000F091A60313861586148612861186108607
:103D0000178216821582148213821092A3031092D6
:103D1000A40311E0B6018091A5039091A6030E942F
:103D2000400F882309F463C067E0C6010E94FA06C9
:103D300098858913EFCF80919F03811126C08091D0
:103D4000A5039091A6030E94B707B6018091A50331
:103D50009091A6030E94980740E064EB8091A50330
:103D60009091A6030E9464078091A5039091A603F9
:103D70000E941107082F8091A5039091A6030E942D
:103D8000B707011102C010939F030091A00389811E
:103D9000803109F481C6C6010E94A8088017C0F4CA
:103DA0008091A0038093A0038091A3038F5F8093F1
:103DB000A3038981883231F0A0F4803119F0823276
:103DC00009F0A8CF8091A4038F5F8093A403A2CFB2
:103DD0008981803111F48CE0E5CFC6010E94A808EA
:103DE000E1CF8B3379F3823409F094CFEBCF80911C
:103DF000A30380933D020E94EF078EEE92E0A0E0C5
:103E0000B0E08093910390939203A0939303B093B7
:103E100094030E94530360939503709396038093D9
:103E200097039093980310929E0310929D03109213
:103E30009B0310929C0368EB73E08EE00E94D1011B
:103E40006CEC73E08FE00E94D10160EE73E080E1E2
:103E50000E94D10164EF73E081E10E94D10168E02A
:103E600074E082E10E94D1016CE174E083E10E9480
:103E7000D10160E374E082E00E94D10180918E0361
:103E80008C3008F051C061E085E00E94CA02809148
:103E90008E03282F30E0F901EE0FFF1FE20FF31F12
:103EA000E759FC4F9081907C9560908310928F032E
:103EB000109290032CE0622F0E941B2B829FB00176
:103EC000112430E020E0AB01420F531FFA01EE0F46
:103ED000FF1FE40FF51FE759FC4F908196FD16C0B8
:103EE0002F5F3F4F2C30310571F781110FC01092B9
:103EF000800082E0809381001092850010928400FF
:103F0000B19A80916F00826080936F00E0918E0380
:103F10008E2F90E0FC01EE0FFF1FE80FF91FE7590D
:103F2000FC4F808180648083CE0101967C011E015C
:103F30009AE2290E311C80919D0390919E03892B5A
:103F400009F50E9453030091950310919603209167
:103F5000970330919803601B710B820B930B0091B8
:103F60009103109192032091930330919403601771
:103F700071078207930730F081E090E090939E03F1
:103F800080939D0380919D0390919E030197A1F4DE
:103F90000E94530360939503709396038093970355
:103FA0009093980310929E0310929D0310929B038E
:103FB00010929C030E94EF071FAA1EAA19AE18AE0A
:103FC0001BAE1AAE50E040E066E871E0CE01C69646
:103FD0000E946F1181EC93E00E94FA0B05EF11E053
:103FE000912CBAE3AB2EB1E0BB2E1C821B8288EE73
:103FF00093E0A0E0B0E08D839E83AF83B887BA8260
:10400000A9829D86D8012D913D918D018091C50396
:104010009091C6032817390709F065C1C7010E94AE
:104020008B0B873109F059C1C7010E941C0B892BEA
:1040300009F459C18B819C81988F8F8B8D819E81D2
:10404000AF81B885898F9A8FAB8FBC8F89859A8510
:10405000AB85BC858D8F9E8FAF8FB8A38AE391E02F
:104060009E8B8D8B8D8589A389A1883009F401C52C
:104070005E0192E2A90EB11CCE0145960E94950BFD
:10408000882309F4F6C4CE0145960E941C0B892BA7
:1040900099F3CE0145960E94FD0C182F89831A8250
:1040A00041E050E0B701CE01C6960E94E2101A30FE
:1040B00019F787ED91E00E9469104AAD5BAD6EA9DA
:1040C0007FA985EA92E00E94830385EA92E00E943C
:1040D0006510CE01C6960E94DF1819AA18AA1BAA5D
:1040E0001AAA1DAA1CAA3E01A0E36A0E711C50E088
:1040F00040E066E871E0C3010E946F116BE972E075
:10410000C3010E94B8106DE872E0C3010E94B810AC
:104110004FE050E064EE71E0C3010E94E2106FE7EF
:1041200072E0C3010E94B81066E070E0C3010E9413
:104130003F1163E772E0C3010E94B810912C809197
:104140003D02981608F0F0C0E091A503F091A60397
:10415000138615861486128611861086178216829B
:1041600015821482138210E0B5018091A50390910D
:10417000A6030E94400F882331F0191509F4C7C027
:104180001F5F911688F76FE672E0C3010E94B810B6
:104190002501F20181912F01803138F441E050E096
:1041A00062EE71E0C3010E94E210F201319780815A
:1041B0001BA61AA61DA61CA61FA61EA640E1B60198
:1041C00090E00E941127F60101900020E9F7319755
:1041D000AF014C195D09B601C1010E946F114EA5D6
:1041E0005FA56AA57BA5C3010E94E2108AA59BA5D5
:1041F0000E940A264214530461F66CE672E0C30181
:104200000E94B8108091A5039091A6030E94B70761
:10421000882309F484C0B601C5010E945C08882384
:1042200009F47DC068E0C6010E94FA0699858913E9
:1042300076C06A8170E0762F6627770F770F770F49
:104240002981F8E02F9F90011124262B372B8AA17A
:104250008031D1F4688570E08F81AB01481B510932
:10426000CA019695982F8827979587950E94272BA6
:10427000CB014097B901F3E0660F771FFA95E1F79C
:1042800060789C01260F371F213854EE35070CF457
:1042900046C0B901330F880B990B0E947D2920E09D
:1042A00030E040E05CE30E94B829870122E044E06E
:1042B0000E945025FC0101900020E9F73197AF01E1
:1042C000481B590BBC01C3010E94E2106AE672E070
:1042D000C3010E94B810939432CFC7010E948B0B88
:1042E0008C3109F4A1CE9394B8E09B127ECE188E47
:1042F0001F8A88EE93E0A0E0B0E0898F9A8FAB8FA1
:10430000BC8F8AE391E09E8B8D8B99A2ADCE67E046
:10431000C5010E94FA0699A5891332CF34CF60E017
:1043200070E08EEF92ECC1CF6BE572E0CE01C096EB
:104330000E94B8100E9453030091090210910A02D2
:1043400020910B0230910C022B013C01401A510AC2
:10435000620A730A88E948168AE358066104710400
:1043600038F12091050230910602409107025091E8
:104370000802A8E9BAE30E94982AA30192010E94C8
:10438000DA2A29010E9453036093090270930A02FA
:1043900080930B0290930C02109205021092060279
:1043A00010920702109208022E965FAE4EAE2E9724
:1043B0002E966EAD7FAD2E97CE01C0960E943F1116
:1043C0006DE472E0CE01C0960E94B8100E945303C3
:1043D00000911102109112022091130230911402E7
:1043E0002B013C01401A510A620A730A98E94916E6
:1043F0009AE359066104710438F120910D0230915D
:104400000E0240910F0250911002A8E9BAE30E94F7
:10441000982AA30192010E94DA2A29010E945303DB
:10442000609311027093120280931302909314020E
:1044300010920D0210920E0210920F0210921002B2
:104440002C965FAE4EAE2C972C966EAD7FAD2C9712
:10445000CE01C0960E943F116EE372E0CE01C0967D
:104460000E94B8100E9453030091190210911A0281
:1044700020911B0230911C022B013C01401A510A71
:10448000620A730AA8E94A16AAE35A06610471048B
:1044900038F1209115023091160240911702509187
:1044A0001802A8E9BAE30E94982AA30192010E9487
:1044B000DA2A29010E9453036093190270931A02A9
:1044C00080931B0290931C02109215021092160208
:1044D00010921702109218022A965FAE4EAE2A97DB
:1044E0002A966EAD7FAD2A97CE01C0960E943F11ED
:1044F00060E372E0CE01C0960E94B8100E945303A0
:104500000091210210912202209123023091240275
:104510002B013C01401A510A620A730AB8E94B1692
:10452000BAE35B066104710438F120911D023091F9
:104530001E0240911F0250912002A8E9BAE30E9496
:10454000982AA30192010E94DA2A29010E945303AA
:10455000609321027093220280932302909324029D
:1045600010921D0210921E0210921F021092200241
:1045700028965FAE4EAE289728966EAD7FAD2897F1
:10458000CE01C0960E943F116FE172E0CE01C0964D
:104590000E94B8100E9453030091290210912A0230
:1045A00020912B0230912C022B013C01401A510A20
:1045B000620A730AE8E94E16EAE35E0661047104D2
:1045C00038F1209125023091260240912702509126
:1045D0002802A8E9BAE30E94982AA30192010E9446
:1045E000DA2A29010E9453036093290270932A0258
:1045F00080932B0290932C02109225021092260297
:10460000109227021092280226965FAE4EAE269791
:1046100026966EAD7FAD2697CE01C0960E943F11C3
:104620006EE072E0CE01C0960E94B8100E94530363
:104630000091310210913202209133023091340204
:104640002B013C01401A510A620A730AF8E94F161D
:10465000FAE35F066104710438F120912D02309174
:104660002E0240912F0250913002A8E9BAE30E9435
:10467000982AA30192010E94DA2A29010E94530379
:10468000609331027093320280933302909334022C
:1046900010922D0210922E0210922F0210923002D0
:1046A00024965FAE4EAE249724966EAD7FAD2497D0
:1046B000CE01C0960E943F116EEF71E0CE01C09610
:1046C0000E94B8100E9453030091390210913A02DF
:1046D00020913B0230913C022B013C01401A510ACF
:1046E000620A730A48E944164AE3540661047104F5
:1046F00038F12091350230913602409137025091C5
:104700003802A8E9BAE30E94982AA30192010E9404
:10471000DA2A29010E9453036093390270933A0206
:1047200080933B0290933C02109235021092360225
:10473000109237021092380222965FAE4EAE229748
:1047400022966EAD7FAD2297CE01C0960E943F119A
:1047500069EE71E0CE01C0960E94B810809190037E
:1047600058E5452E52E0552E481A510887FD5394BE
:10477000440C551C440C551CC201550CAA0BBB0B18
:104780008CAF9DAFAEAFBFAF20918F0388E890E0B4
:10479000821B910927FD9395880F991F880F991FF8
:1047A0002C01990F6608770880918E038F3F09F4DA
:1047B0005DC190E0FC01EE0FFF1FE80FF91FE75904
:1047C000FC4F8181928133E0880F991F3A95E1F780
:1047D000B0E0A0E044E0B595A795979587954A95F8
:1047E000D1F702969C012F5F3F4F032E000C440B24
:1047F000550B2419350946095709A4EBB0E00E946E
:10480000982A2CAD3DAD4EAD5FAD24193509460952
:1048100057090E94792AB901CE01C0960E943F1122
:1048200064EE71E0CE01C0960E94B81067ED71E0B1
:10483000CE01C0960E94B8108091D3039091D4030A
:10484000009711F487ED93E0B701681B790BCE0157
:10485000C0960E943F116AEC71E0CE01C0960E94A2
:10486000B8100E9453036CAF7DAF8EAF9FAF28EEA0
:1048700033E040E050E00E94DA2A29013A011A822E
:1048800019821C821B821E821D8250E040E066E875
:1048900071E0C7010E946F1191E8491691E5590630
:1048A00091E06906710498F16CAD7DAD8EAD9FAD60
:1048B00020E03CE546E255E00E94DA2A2CAF3DAF0D
:1048C0004EAF5FAF4AE0B5018CAD9DAD0E94E426CE
:1048D000F50101900020E9F73197AF014A195B0912
:1048E000B501C7010E94E21062EC71E0C7010E94AD
:1048F000B8102CAD3DAD4EAD5FAD60E871E581E027
:1049000090E00E940B2B461A570A680A790AA1E127
:104910004A16AEE05A0661047104F0F0B0EA4B1694
:10492000BCE85B066104710428F460EC71E0C70127
:104930000E94B810C301B20120E13EE040E050E027
:104940000E94DA2ABA01A901C7010E940E116EEB7A
:1049500071E0C7010E94B810C301B2012CE330E03E
:1049600040E050E00E94DA2ACA01B9012CE330E0AD
:1049700040E050E00E94DA2A6CAF7DAF8EAF9FAF6F
:104980006A3071058105910528F46CEB71E0C7016F
:104990000E94B8104CAD5DAD6EAD7FADC7010E94F9
:1049A0000E116AEB71E0C7010E94B810C301B20199
:1049B0002CE330E040E050E00E94DA2A2B013C0179
:1049C000EAE04E1651046104710428F468EB71E0CA
:1049D000C7010E94B810B301A201C7010E940E11C5
:1049E0004D815E8169817A81CE01C0960E94E2107C
:1049F00089819A810E940A2665EC71E0CE01C096F9
:104A00000E94B8106DEC72E0CE0145960E947E10B7
:104A10006EEA72E0CE0145960E947E106DE972E06A
:104A2000CE0145960E945F034CA95DA970E060E04D
:104A30002AE0CE0145960E94CF0FCE0145960E94F6
:104A40006510CE0145960E9465104CA95DA968A924
:104A500079A9CE0145960E94D50DCE0145960E94BA
:104A6000B80B88A999A90E940A2606CB90E080E09D
:104A7000B9CE8EA99FA90E940A260E94530380E006
:104A800090E0892B09F457CA0E948104882309F415
:104A900052CA0E9400004FCA0D3008F081C99BC95C
:104AA000EF920F931F93CF93DF93E80134E047FD1C
:104AB00034E1042E000C550B57FF03C0519541956E
:104AC0005109E32E022F242FAE010E942B27CE0185
:104AD000DF91CF911F910F91EF9008950F931F9346
:104AE000CF93DF938230910510F482E090E0E09163
:104AF000D503F091D60330E020E0B0E0A0E030979D
:104B000099F42115310509F44AC0281B390B2430CA
:104B10003105D8F58A819B816115710589F1FB0109
:104B200093838283FE0111C04081518102811381F0
:104B300048175907E0F04817590799F4109761F0A2
:104B400012960C93129713961C933296CF01DF9115
:104B5000CF911F910F9108950093D5031093D60321
:104B6000F4CF2115310551F04217530738F0A90150
:104B7000DB019A01BD01DF01F801C1CFEF01F9CFDF
:104B80009093D6038093D503CDCFFE01E20FF31FA0
:104B9000819391932250310939832883D7CF209173
:104BA000D3033091D403232B41F420910A01309197
:104BB0000B013093D4032093D3032091080130914B
:104BC00009012115310541F42DB73EB740910C0183
:104BD00050910D01241B350BE091D303F091D403C8
:104BE000E217F307A0F42E1B3F0B2817390778F0C4
:104BF000AC014E5F5F4F2417350748F04E0F5F1F23
:104C00005093D4034093D303819391939FCFF0E0CB
:104C1000E0E09CCFCF93DF930097E9F0FC0132975F
:104C200013821282A091D503B091D603ED0130E03A
:104C300020E01097A1F420813181820F931F2091F1
:104C4000D3033091D4032817390709F061C0F093DA
:104C5000D403E093D303DF91CF910895EA01CE17F7
:104C6000DF07E8F54A815B819E0141155105B1F7E7
:104C7000E901FB83EA8349915991C40FD51FEC17D1
:104C8000FD0761F4808191810296840F951FE901EF
:104C900099838883828193819B838A83F0E0E0E01B
:104CA00012968D919C9113970097B9F52D913C9197
:104CB0001197CD010296820F931F2091D30330915B
:104CC000D4032817390739F6309751F51092D603D7
:104CD0001092D503B093D403A093D303BCCFD38356
:104CE000C28340815181840F951FC817D90761F491
:104CF0004E5F5F4F88819981480F591F51834083D0
:104D00008A819B81938382832115310509F0B0CF7D
:104D1000F093D603E093D5039ECFFD01DC01C0CF15
:104D200013821282D7CFDC012D923D924D925D927B
:104D30006D927D928D929D92AD92BD92CD92DD92BB
:104D4000ED92FD920D931D93CD93DD93FF91EF9125
:104D50008DB78D938EB78D938FB78D93ED93FD9314
:104D6000882799270994DC01CB0181309105811DA9
:104D70002D903D904D905D906D907D908D909D908B
:104D8000AD90BD90CD90DD90ED90FD900D911D9179
:104D9000CD91DD91ED91FD910D90F894FEBF0FBE88
:104DA000EDBFED91FD910994FB01DC0105900D92A1
:104DB0000020E1F70895FC0105900020E9F78095B7
:104DC00090958E0F9F1F0895BB274A3031F4992389
:104DD00022F4BDE2909581959F4F0C941227BB273A
:104DE000FA01A62F6217710581059105330B30FB7F
:104DF00066F0AA27660F771F881F991FAA1FA217A0
:104E000010F0A21B63953850A9F7A05DAA3308F0F3
:104E1000A95DA19336F7B111B1931082CA010C9428
:104E20006B29BB27FB015527AA27880F991FAA1FAB
:104E3000A41710F0A41B83955051B9F7A05DAA33B5
:104E400008F0A95DA193009779F7B111B193119280
:104E5000CB010C946B29A9E0B0E0E1E3F7E20C94FC
:104E6000A92A6A01F22EB02E102FFBE3AF2EA01656
:104E700008F41BE31F5F012F27E0AE014F5F5F4F78
:104E80000E948A28BC018981982F9970913009F479
:104E90003FC09BE2E1FC04C09E2D9170E0FC3AC053
:104EA0005E2D5071E82FE87083FF46C084E09111B9
:104EB00001C083E0EF2DE81B8F1508F0E0E0D6017C
:104EC0008E2F20E2552351F1992329F0D6019C938E
:104ED000C60101966C0196012D5F3F4FE2FE24C092
:104EE0008EE4D6018C9391E411969C9311971296BF
:104EF0008C93D9018E2F90E281111BC0E20FF32F0A
:104F0000F11D10828EEF9FEF2996ECE00C94C52ADC
:104F10009DE2C6CF90E2C4CF2D9381508111FCCF8A
:104F2000CE0ED11CE0E0D0CF8EE6D6018C9391E678
:104F3000DBCF9D938150E0CF482F447082FF3DC06E
:104F400084E0911101C083E08F1510F4EF2DE81B70
:104F5000D6018E2F20E2552309F1992329F0D6019D
:104F60009C93C60101966C0196012D5F3F4FE2FEB6
:104F70001BC089E4D6018C938EE411968C93119713
:104F800086E412968C93D9018E2F90E2882309F43F
:104F9000B5CF9D938150FACF2D9381508111FCCFD5
:104FA000CE0ED11CE0E0D9CF89E6D6018C938EE6F7
:104FB00011968C93119786E6E4CF9B0177FF02C090
:104FC00030E020E0A1E0B0E0911102C0B0E0A0E04C
:104FD000F9013196AE0FBF1F8B2C912CBB2009F429
:104FE00061C05401EFEFAE1ABE0AAA0DBB1DFA163E
:104FF0001B0619F014F04F2D4A1B511188C0E3FC19
:1050000059C07601A42FB0E2A1114FC0C40ED11C2B
:10501000992309F45BC040E0D6011196F601908314
:105020006D01552309F448C0012F060F9A81582FAE
:10503000507184FF03C0913309F4015010160CF035
:1050400047C0093008F008E0EEE2FE2E5B01A01A2E
:10505000B10885019194819491082F3F320729F47A
:10506000D601FC92F60131966F016217730794F135
:10507000021713077CF5DB01A21BB30BAA24A39430
:10508000B12CAC0EBD1EAA0DBB1D11968C912150EA
:105090003109D601119628153905F4F0F6018083FF
:1050A0006D01DBCFB12CA12CA0CFF701B1937F0113
:1050B000A150AACF9111B0CFD601942F50E302C0D6
:1050C0005D9391509111FCCFC40ED11C40E0ACCF48
:1050D00001E0BACF80E3DBCF6217730731F4963378
:1050E00088F4953311F4552369F0F6018083FD01AE
:1050F000842F90E2811108C0A40FB11D1C9290E092
:1051000080E002CF81E3F1CF91938150F3CF9111F1
:1051100083CF8ACF283008F027E03327DA01990FB0
:10512000311D87FD916000966105710539F432608B
:105130002E5F3D9330E32A95E1F708959F3F30F0CD
:1051400080387105610509F03C5F3C5F3D9391300B
:1051500008F08068911DDF93CF931F930F93FF9208
:10516000EF92192F987F9695E92F96959695E90FCE
:10517000FF27EE53FF4F99273327EE24FF24A70183
:10518000E70105900894079428F4360FE71EF81EEF
:10519000491F511D660F771F881F991F0694A1F79D
:1051A0000590079428F4E70EF81E491F561FC11DED
:1051B000770F881F991F661F0694A1F70590079423
:1051C00028F4F80E491F561FC71FD11D880F991FBD
:1051D000661F771F0694A1F70590079420F4490FE6
:1051E000561FC71FD81F990F661F771F881F069469
:1051F000A9F784911095177041F0D695C7955795EA
:105200004795F794E7941A95C1F7E8E6F0E06894BB
:105210001590159135916591959105907FE2739563
:10522000E118F10A430B560BC90BD009C0F7E10C8A
:10523000F11E431F561FC91FD01D7EF4703311F499
:105240008A95E6CFE894015030F0080F0AF4002761
:10525000021708F4202F2395022F7A3328F079E3E0
:105260007D932A95E9F710C07D932A9589F60694D7
:1052700097956795379517951794E118F10A430BA1
:10528000560BC90BD00998F023957E9173957A330C
:1052900008F070E37C932013B8F77E9170617D93E2
:1052A00030F0839571E37D9370E32A95E1F7112443
:1052B000EF90FF900F911F91CF91DF91992787FD7C
:1052C0009095089591110C94252A803219F08950F7
:1052D0008550C8F70895DC01FC01672F7191772391
:1052E000E1F7329704C07C916D9370836291AE17A1
:1052F000BF07C8F30895E89409C097FB3EF4909562
:105300008095709561957F4F8F4F9F4F9923A9F09E
:10531000F92F96E9BB279395F6958795779567952D
:10532000B795F111F8CFFAF4BB0F11F460FF1BC071
:105330006F5F7F4F8F4F9F4F16C0882311F096E904
:1053400011C0772321F09EE8872F762F05C06623B2
:1053500071F096E8862F70E060E02AF09A95660F6B
:10536000771F881FDAF7880F9695879597F9089524
:105370000E94CB290C943F2A0E94312A38F00E94C7
:10538000382A20F0952311F00C94282A0C942E2A08
:1053900011240C94732A0E94502A70F3959FC1F334
:1053A000950F50E0551F629FF001729FBB27F00DD3
:1053B000B11D639FAA27F00DB11DAA1F649F662728
:1053C000B00DA11D661F829F2227B00DA11D621F77
:1053D000739FB00DA11D621F839FA00D611D221F31
:1053E000749F3327A00D611D231F849F600D211D15
:1053F000822F762F6A2F11249F5750409AF0F1F098
:1054000088234AF0EE0FFF1FBB1F661F771F881F00
:1054100091505040A9F79E3F510580F00C94282AE6
:105420000C94732A5F3FE4F3983ED4F38695779506
:105430006795B795F795E7959F5FC1F7FE2B880FA6
:10544000911D9695879597F908959927882708952E
:1054500097F99F6780E870E060E008959FEF80EC27
:10546000089500240A9416161706180609060895CA
:1054700000240A9412161306140605060895092E30
:105480000394000C11F4882352F0BB0F40F4BF2B9F
:1054900011F460FF04C06F5F7F4F8F4F9F4F0895DF
:1054A00057FD9058440F551F59F05F3F71F04795D5
:1054B000880F97FB991F61F09F3F79F087950895BA
:1054C000121613061406551FF2CF4695F1DF08C0D9
:1054D000161617061806991FF1CF869571056105F6
:1054E00008940895E894BB2766277727CB0197F99E
:1054F0000895052E97FB1EF400940E94902A57FDF4
:1055000007D00E94DA2A07FC03D04EF40C94902AAC
:1055100050954095309521953F4F4F4F5F4F0895DF
:1055200090958095709561957F4F8F4F9F4F08950F
:105530000E94FC2AA59F900DB49F900DA49F800D02
:10554000911D112408952F923F924F925F926F9276
:105550007F928F929F92AF92BF92CF92DF92EF9203
:10556000FF920F931F93CF93DF93CDB7DEB7CA1B84
:10557000DB0B0FB6F894DEBF0FBECDBF09942A88AF
:10558000398848885F846E847D848C849B84AA8457
:10559000B984C884DF80EE80FD800C811B81AA81E4
:1055A000B981CE0FD11D0FB6F894DEBF0FBECDBFAF
:1055B000ED010895A1E21A2EAA1BBB1BFD010DC02F
:1055C000AA1FBB1FEE1FFF1FA217B307E407F507B3
:1055D00020F0A21BB30BE40BF50B661F771F881F8F
:1055E000991F1A9469F760957095809590959B0125
:1055F000AC01BD01CF010895A29FB001B39FC001CE
:10560000A39F700D811D1124911DB29F700D811DEE
:105610001124911D0895DB018F939F930E94982A76
:10562000BF91AF91A29F800D911DA39F900DB29F3E
:10563000900D11240895991B79E004C0991F9617C5
:1056400008F0961B881F7A95C9F78095089597FBF7
:10565000072E16F4009407D077FD09D00E94412B45
:1056600007FC05D03EF4909581959F4F0895709565
:1056700061957F4F0895EE0FFF1F0590F491E02D87
:105680000994AA1BBB1B51E107C0AA1FBB1FA61789
:10569000B70710F0A61BB70B881F991F5A95A9F7DB
:1056A00080959095BC01CD010895B0E0A0E0EBE5B8
:1056B000FBE20C94A52A8C01009751F4CB010E94C7
:1056C0006E258C01C801CDB7DEB7E0E10C94C12A8C
:1056D000FC01E60FF71F9C0122503109E217F30786
:1056E00008F49DC0D901CD91DC911197C617D70759
:1056F00098F0C530D10530F3CE010497861797078F
:1057000008F3C61BD70B2297C193D1936D937C935B
:10571000CF010E940A26D6CF5B01AC1ABD0A4C010C
:105720008C0E9D1EA091D503B091D603512C412C17
:10573000F12CE12C109731F58091D3039091D40393
:105740008815990509F05CC04616570608F058C040
:105750008091080190910901009741F48DB79EB79F
:1057600040910C0150910D01841B950BE817F9072E
:1057700008F055C0F093D403E093D303F90171838B
:105780006083A0CF8D919C91119712966C90129787
:1057900013967C901397A815B90559F56C0142E052
:1057A000C40ED11CCA14DB0420F1AC014A195B09F8
:1057B000DA011296159780F06282738251834083DA
:1057C000D9016D937C93E114F10471F0D701139624
:1057D000FC93EE93129776CF22968C0F9D1FF901C2
:1057E00091838083F301EFCFF093D603E093D50349
:1057F00069CF4816590608F42C017D01D3019ACFD0
:10580000CB010E946E257C01009749F0AE01B801E2
:105810000E94622CC8010E940A26870153CF10E023
:1058200000E050CF81E090E0F8940C94722C91113C
:105830000C94252A80538A5018F0865C0C94242CF2
:10584000089585FD0C94252A806291110C94252AD7
:1058500081568A51D8F7089591110C94252A8053C6
:105860008A5028F0865C806281568650B0F7089591
:1058700091110C94252A8F3711F08052D0F708959A
:1058800091110C94252A81528E55D8F781580E9487
:10589000172C8823B1F781E0089591110895815460
:1058A0008A5108F4805E855A0895FB01DC0104C02A
:1058B0008D910190801921F441505040C8F7881B08
:1058C000990B0895FB01DC0102C001900D9241503B
:1058D0005040D8F70895FB01DC0101900D920020A3
:0858E000E1F70895F894FFCFF1
:1058E8000004CA74C0FFCF010000D7038000000085
:1058F8000000FD08590B3D0FEB087A02CF0C8D0A0A
:10590800400D6D090C0A1309F917170D1D15B00C78
:10591800660956095209000000009209D50D3D0F8D
:1059280091091C0BFD0C670AA70E6C18F90CB80B33
:10593800950BB0038609A8095E00BC00770100003A
:105948000000B70483034404040575045304670482
:10595800000000006F093C0E3D0F85096E0D000028
:1059680000001B100D0A00504F53542028256129B0
:10597800200072656164537472696E6733333A202C
:1059880000504F5354202F204854545031006D611B
:105998007463686564006E6F206D617463680046A7
:1059A80041494C0053657269616C2E626567696E86
:1059B8002839363030290072656164537472696E13
:1059C80067323000636F6C6C6563746F722D666C40
:0459D8006F6F72007B
:00000001FF
