:100000000C94F4010C94EB180C94C4180C941C027E
:100010000C941C020C941C020C941C020C941C02E8
:100020000C941C020C941C020C941C020C941C02D8
:100030000C941C020C941C020C941C020C941C02C8
:100040000C947A180C941C020C9438190C94121904
:100050000C941C020C941C020C941C020C941C02A8
:100060000C945F170C941C0207634236B79BD8A709
:100070001A39685618AEBAAB558C1D3CB7CC5763CD
:10008000BD6DEDFD753EF6177231BF000000803F7B
:1000900008000000BE922449123EABAAAA2ABECD97
:1000A000CCCC4C3E00000080BEABAAAAAA3E000009
:1000B0000000BF000000803F000000000008417801
:1000C000D3BB4387D1133D190E3CC3BD4282AD2B38
:1000D0003E68EC8276BED98FE1A93E4C80EFFFBE30
:1000E00001C4FF7F3F000000000000407A10F35A77
:1000F00000A0724E18090010A5D4E80000E8764868
:10010000170000E40B54020000CA9A3B000000E113
:10011000F505000080969800000040420F000000A6
:10012000A08601000000102700000000E803000086
:1001300000006400000000000A0000000000010050
:10014000000000002C76D888DC674F0823DFC1DF71
:10015000AE59E1B1B796E5E3E453C63AE651997674
:1001600096E8E6C28426EB898C9B62ED407C6FFCAE
:10017000EFBC9C9F40F2BAA56FA5F490055A2AF7F0
:100180005C936B6CF9676DC11BFCE0E40D47FEF5F9
:1001900020E6B500D0ED902E030094357705008061
:1001A000841E080000204E0A000000C80C333333C0
:1001B000330F986E12831141EF8D2114893BE65560
:1001C00016CFFEE6DB18D1844B381BF77C1D901D43
:1001D000A4BBE424203284725E228100C9F124ECA5
:1001E000A1E53D27005EBCE2613FDD83C29C7E202D
:1001F000A3FD1F41009D23BE46DB65F88C11AF3285
:10020000CA57E974506C6561736520636F6E6E65E3
:10021000637420746F20687474703A2F2F005365D4
:10022000727665722069732072656164792E00416F
:1002300062676C6569636820706C6175736965627B
:10024000656C0048583731312054656D70657261B6
:100250007475726D657373756E67206D6974205067
:10026000743130302057696465727374616E6473E1
:10027000746865726D6F6D657465720046524545B0
:100280002052414D3A200020202073656E736F721A
:100290005072657373203D200030003A0030003A00
:1002A000003000642000220A7D002C0A2275705460
:1002B000696D65223A22002C0A22667265655261D8
:1002C0006D223A000A2262772D7368757474657224
:1002D000223A002C000A7D000A2262772D666C6F9C
:1002E00077223A002C00223A002C0A22000A2262CD
:1002F000772D7450543130302D736D6F6B65223A09
:10030000002C000A2262772D707265737375726516
:10031000223A000A2264617461223A207B002C0098
:100320000A2276657273696F6E223A002C0022628F
:100330006F696C65722D776F6F6422000A226465A5
:10034000766963654964223A007B00436F6E746589
:100350006E742D4C656E6774683A2000436F6E743E
:10036000656E742D547970653A206170706C6963A4
:100370006174696F6E2F6A736F6E00485454502F0A
:10038000312E3120323030204F4B0000000000254C
:100390000028002B000000000800020100000304F8
:1003A00007000000000000000000000000240027FB
:1003B000002A000000000023002600290004040495
:1003C00004040404040202020202020303030303FE
:1003D00003010204081020408001020408102001DB
:1003E0000204081020006A1911241FBECFEFD8E0C4
:1003F000DEBFCDBF11E0A0E0B1E0ECE3F8E502C064
:1004000005900D92AE3FB107D9F724E0AEEFB1E011
:1004100001C01D92A932B207E1F711E0C4EFD1E0AB
:1004200004C02197FE010E94442BC33FD107C9F7A6
:100430000E94751A0C941C2C0C94000085ED80937E
:10044000BC008091BC0084FDFCCF1092C1020895D5
:1004500020919D02260F3327331F21323105ECF402
:100460002091C102FC0190E080E0243069F082E03C
:100470000895A0919D022191AC0143585D4FA40FB6
:10048000B52FB11D2C930196861798F380919D028C
:10049000680F60939D0280E0089581E008950895BB
:1004A000E0917C0280917B02E81730F4F0E0E55A9D
:1004B000FD4F808190E008958FEF9FEF0895909118
:1004C0007C0280917B022FEF3FEF981748F4E92FD1
:1004D000F0E0E55AFD4F208130E09F5F90937C0271
:1004E000C901089580917B0290917C02891B990B30
:1004F0000895CF92DF92EF92FF920F931F93CF93C5
:10050000DF937C01CB018A0120915A02222389F0DA
:10051000EB016B01C40ED51ECC15DD0569F06991A8
:10052000D701ED91FC910190F081E02DC701099573
:10053000F3CF642F0E942802C801DF91CF911F9151
:100540000F91FF90EF90DF90CF900895CF93DF93BE
:100550001F92CDB7DEB7698320915A022223F9F0AA
:1005600020915902203258F021E030E0FC01338321
:10057000228390E080E00F90DF91CF9108958091E9
:100580005802E82FF0E0E85CFD4F998190838F5F7F
:10059000809358028093590281E090E0ECCF61E0B3
:1005A000CE0101960E942802F7CFFC01818D928D29
:1005B0000895833081F028F4813099F08230A9F0D9
:1005C00008958730A9F08830C9F08430B1F4809163
:1005D00080008F7D03C0809180008F7780938000A2
:1005E000089584B58F7784BD089584B58F7DFBCF42
:1005F0008091B0008F778093B00008958091B00013
:100600008F7DF9CFCF93DF93282F30E0F901EB56A0
:10061000FC4F8491F901EF52FC4FD491F901E3545E
:10062000FC4FC491CC23A1F081110E94D902EC2F80
:10063000F0E0EE0FFF1FED54FC4FA591B491EC914B
:10064000ED2381E090E009F480E0DF91CF910895FF
:1006500080E090E0FACF1F93CF93DF93282F30E014
:10066000F901EB56FC4F8491F901EF52FC4FD49104
:10067000F901E354FC4FC491CC23A9F0162F81114A
:100680000E94D902EC2FF0E0EE0FFF1FE557FC4F60
:10069000A591B4918FB7F894EC91111108C0D09541
:1006A000DE23DC938FBFDF91CF911F910895DE2B66
:1006B000F8CFCF93DF9390E0FC01EF52FC4F2491F1
:1006C00083549C4FFC0184918823D1F090E0880FE3
:1006D000991FFC01E755FC4FA591B491FC01E5572A
:1006E000FC4FC591D49161110EC09FB7F8948C91C5
:1006F000E22FE0958E238C932881E223E8839FBF2D
:10070000DF91CF9108958FB7F894EC91E22BEC93A1
:100710008FBFF6CF3FB7F8948091340290913502A5
:10072000A0913602B091370226B5A89B05C02F3F95
:1007300019F00196A11DB11D3FBFBA2FA92F982F07
:100740008827BC01CD01620F711D811D911D42E002
:10075000660F771F881F991F4A95D1F708958F92CA
:100760009F92AF92BF92CF92DF92EF92FF926B0176
:100770007C010E948A034B015C01C114D104E10495
:10078000F104B9F00E948A03681979098A099B0962
:10079000683E73408105910580F321E0C21AD108BB
:1007A000E108F10888EE880E83E0981EA11CB11CB8
:1007B000E4CFFF90EF90DF90CF90BF90AF909F90ED
:1007C0008F9008952FB7F8946091300270913102A4
:1007D00080913202909133022FBF08950895EF92D5
:1007E000FF920F931F93CF93DF938C017B01D0E097
:1007F000C0E0F701EC0FFD1F6491662361F0D801A2
:10080000ED91FC910190F081E02DC8010995892BB3
:1008100011F02196EECFCE01DF91CF911F910F9174
:10082000FF90EF900895AF92BF92CF92DF92EF9238
:10083000FF920F931F93CF93DF936C017B018B018A
:10084000040F151FEB015E01AE18BF08C017D107DA
:1008500059F06991D601ED91FC910190F081E02D64
:10086000C6010995892B79F7C501DF91CF911F91B9
:100870000F91FF90EF90DF90CF90BF90AF900895D1
:100880008091160290911702A0911802B09119025E
:100890000196A11DB11D8093160290931702A0939B
:1008A0001802B0931902089521E0FC018485883074
:1008B00009F420E0822F0895FC01538D448D252FEB
:1008C00030E0842F90E0821B930B541710F0CF96EA
:1008D000089501970895FC01918D828D981761F01C
:1008E000A28DAE0FBF2FB11D5D968C91928D9F5F33
:1008F0009F73928F90E008958FEF9FEF0895FC0112
:10090000918D828D981731F0828DE80FF11D858DC4
:1009100090E008958FEF9FEF0895FC01918D228D57
:10092000892F90E0805C9F4F821B91098F739927DC
:10093000089583E093E00E948D0421E0892B09F45F
:1009400020E0822F089580E090E0892B29F00E941A
:10095000990481110C9400000895FC01A48DA80F46
:10096000B92FB11DA35ABF4F2C91848D90E00196F1
:100970008F739927848FA689B7892C93A089B18911
:100980008C91837080648C93938D848D981306C0B2
:100990000288F389E02D80818F7D80830895EF9216
:1009A000FF920F931F93CF93DF93EC0181E0888F29
:1009B0009B8D8C8D98131AC0E889F989808185FFF9
:1009C00015C09FB7F894EE89FF896083E889F9899B
:1009D00080818370806480839FBF81E090E0DF919D
:1009E000CF911F910F91FF90EF900895F62E0B8DF0
:1009F00010E00F5F1F4F0F731127E02E8C8D8E11AB
:100A00000CC00FB607FCFACFE889F989808185FF11
:100A1000F5CFCE010E94AD04F1CFEB8DEC0FFD2F91
:100A2000F11DE35AFF4FF0829FB7F8940B8FEA89CC
:100A3000FB8980818062CFCFCF93DF93EC01888DDB
:100A40008823B9F0AA89BB89E889F9898C9185FD49
:100A500003C0808186FD0DC00FB607FCF7CF8C91D7
:100A600085FFF2CF808185FFEDCFCE010E94AD04DE
:100A7000E9CFDF91CF91089561E08091E8020C9475
:100A80002B0360E08091E8020C942B0308958EBD47
:100A900000000DB407FEFDCF8EB508958CBD9DBD41
:100AA0000895DF92EF92FF920F931F93CF93DF93FE
:100AB000D82FD92EC62F7A0189018091A003909159
:100AC000A1030E944E050E9441058D2D0E944705FD
:100AD0008D2F0E9447058C2F0E944705E701E00EED
:100AE000F11E80E00E9447058993EC16FD06C9F7C8
:100AF0000E943C05C801DF91CF911F910F91FF909B
:100B0000EF90DF900895CF93DF93D82FC62F809179
:100B1000A0039091A1030E944E050E94410580E030
:100B20000E9447058D2F0E9447058C2F0E94470584
:100B300080E00E944705C82F0E943C058C2FDF9162
:100B4000CF910895DF92EF92FF920F931F93CF936F
:100B5000DF93D82FD92EC62F7A0189018091A00367
:100B60009091A1030E944E050E9441058D2D0E9487
:100B700047058D2F0E9447058C2F0E944705E701EE
:100B8000E00EF11ECE15DF0521F089910E94470588
:100B9000F9CF0E943C05C801DF91CF911F910F91C1
:100BA000FF90EF90DF9008951F93CF93DF93182F5E
:100BB000D62FC42F8091A0039091A1030E944E05CF
:100BC0000E94410580E00E944705812F0E94470551
:100BD0008D2F0E9447058C2F0E9447050E943C05DF
:100BE00081E0DF91CF911F910895CF92DF92EF9234
:100BF000FF920F931F93CF93DF93CDB7DEB7C2540D
:100C0000D1090FB6F894DEBF0FBECDBFFC018281C3
:100C10009381A481B58123968CAF9DAFAEAFBFAF5A
:100C2000239721E023962FAF239723964CAD5DADFC
:100C30006EAD7FAD23974BAB5CAB6DAB7EAB89AF3D
:100C40009AAFABAFBCAF8DA79EA7AFA7B8AB28AB91
:100C50004DA55EA56FA578A94FA358A769A77AA748
:100C60002EAB4BA95CA96DA97EA949A35AA36BA37E
:100C70007CA38B8F9C8FAD8FBE8F40EA51E05C8B45
:100C80004B8B3FEF3D8B3E8B3F8B188E5E874D87A6
:100C90002AA7CFA0D8A4E9A4FAA4CF86D88AE98A43
:100CA000FA8A2CA309A11AA12BA13CA109871A87B2
:100CB0002B873C875A8349838B839C83AD83BE8378
:100CC0001091C0031093E80268EE73E080E090E0BA
:100CD0000E94AF0361E0812F0E9459031FB7F8946F
:100CE0008091E702811127C0E7ECF3E08491EBEDFE
:100CF000F3E09491E82FF0E0EE0FFF1FE755FC4F73
:100D0000A591B491EC91E92321F461E08AE00E947D
:100D10002B0361E08AE00E9459038CB580618CBD91
:100D20008CB580648CBD61E08DE00E94590361E068
:100D30008BE00E9459038091E7028F5F8093E70266
:100D40001FBF60E090E080E00E948305482F40686C
:100D500064E090E080E00E94D4051CE088E0E82E8A
:100D6000F12C42E0612F8EE190E00E94D40542E038
:100D7000612F8FE190E00E94D405F1E0EF1AF108B5
:100D8000105EE114F10469F726E030E046E051E03E
:100D900064E089E090E00E94A20524E030E0AE012A
:100DA0004D5F5F4F64E08FE090E00E94A20524E079
:100DB00030E0AE01415F5F4F64E081E090E00E946F
:100DC000A20524E030E0AE014B5E5F4F64E085E0B9
:100DD00090E00E94A20581E08C8789859A85AB8589
:100DE000BC858093B6039093B703A093B803B093E8
:100DF000B903CE5BDF4F0FB6F894DEBF0FBECDBF99
:100E0000DF91CF911F910F91FF90EF90DF90CF90E6
:100E100008959B018295880F807E6CE0680FC90160
:100E20000C94D4050895CF93DF93EC01898D9A8DAE
:100E3000892B41F0E881F9810284F385E02DCE0110
:100E40000995F4CFDF91CF910895CF93DF931F924F
:100E5000CDB7DEB76983DC01ED91FC910280F381AF
:100E6000E02D41E050E0BE016F5F7F4F09950F908C
:100E7000DF91CF9108951F93CF93DF93FB01DC01A6
:100E800058961C921E9257972281211109C02381E6
:100E9000211106C02481211103C02581222339F1AB
:100EA0004115510521F1EA01DC011C961C91AF01AD
:100EB0004E5F5F4F612F6295660F607E645F24E036
:100EC00030E08CE090E00E94A2054D2F60E170E0E0
:100ED000812F0E9409074C2F61E170E0812F0E9451
:100EE000090781E090E0DF91CF911F91089590E094
:100EF00080E0F9CFFC0185899689089520EA31E0E8
:100F0000FC0131832083FB01418952896389748903
:100F1000FC0142835383648375830895DC01ED9162
:100F2000FC91048CF58DE02D099480E00895CF9319
:100F3000DF931F92CDB7DEB76983DC01ED91FC91A1
:100F40000280F381E02D41E050E0BE016F5F7F4FF2
:100F500009950F90DF91CF9108950895FC01948534
:100F6000FB018485981303C081E0983009F480E088
:100F700008950895CF93DF931F92CDB7DEB76983AD
:100F8000DC01ED91FC910280F381E02D41E050E025
:100F9000BE016F5F7F4F09950F90DF91CF9108954C
:100FA000DC01ED91FC91028CF38DE02D099591E02F
:100FB000892708959B018295880F807E68E0680FDD
:100FC000C9010C948305CF93C82F462F61E070E0D0
:100FD0000E94090761E070E08C2F0E94DA078111FE
:100FE000F9CFCF910895CF93C82F60E170E00E94B0
:100FF000E3074FEF62E070E08C2FCF910C9409076C
:101000000F931F93CF93DF93C82FD62F8A010E948F
:10101000F3074D2F70E060E08C2F0E940907011547
:101020001105B9F0412F64E070E08C2F0E94090790
:10103000402F65E070E08C2F0E94090761E070E0AE
:101040008C2F0E94E30781E0DF91CF911F910F91D8
:1010500008950091E9021091EA020F5F1F4F10936B
:10106000EA020093E902DECFCF93DF93EC018C8597
:10107000883061F00E94F307EC85F0E0EE0FFF1F6F
:10108000E250FE4F1182108288E08C87DF91CF9171
:101090000895CF92DF92EF92FF920F931F93CF9319
:1010A000DF93D82E7B018A01C22E68E270E00E9495
:1010B000DA07C82FD0E0DC2FCC2769E270E08D2D55
:1010C0000E94DA07C80FD11D6D2D6295660F607EF4
:1010D000685E9801A701CE010E945105C11016C09B
:1010E000C00FD11F4D2F68E270E08D2D0E940907BF
:1010F0004C2F69E270E08D2DDF91CF911F910F9100
:10110000FF90EF90DF90CF900C940907DF91CF9183
:101110001F910F91FF90EF90DF90CF9008950F9364
:101120001F93CF93DF931F92CDB7DEB78C01DC0105
:10113000ED91FC910084F185E02D0995892B91F0CA
:1011400021E041E050E0BE016F5F7F4FF8018485F0
:101150000E944908898190E00F90DF91CF911F9103
:101160000F9108958FEF9FEFF7CFCF93DF931F92EB
:10117000CDB7DEB7FC01218D328D8FEF9FEF232B92
:1011800059F021E041E050E0BE016F5F7F4F848560
:101190000E944908898190E00F90DF91CF910895D6
:1011A000BF92CF92DF92EF92FF920F931F93CF9354
:1011B000DF93B82E6B017A01890164E270E00E942E
:1011C000DA07C82F65E270E08B2D0E94DA07D0E0C5
:1011D000DC2FCC278C0D9D2D911DC80FD91F6B2D99
:1011E0006295660F607E6C5E9801A701CE010E9439
:1011F000A205C00FD11F4D2F64E270E08B2D0E941D
:1012000009074C2F65E270E08B2DDF91CF911F9184
:101210000F91FF90EF90DF90CF90BF900C94090753
:101220001F93CF93DF93182F66E270E00E94DA07D6
:10123000C82FD0E0DC2FCC2767E270E0812F0E941E
:10124000DA078C0F9D2F911DDF91CF911F9108958B
:10125000FF920F931F93CF93DF93F82E10E000E0DF
:101260008F2D0E941009EC01892B21F08F2D0E94F7
:1012700010098C01C017D10799F7CE01DF91CF91EA
:101280001F910F91FF900895FC018485883011F023
:101290000C94280990E080E008951F93CF93DF938A
:1012A000182F60E270E00E94DA07C82FD0E0DC2F30
:1012B000CC2761E270E0812F0E94DA078C0F9D2F0E
:1012C000911DDF91CF911F910895FF920F931F936E
:1012D000CF93DF93F82E10E000E08F2D0E944D0990
:1012E000EC01892B21F08F2D0E944D098C01C01734
:1012F000D10799F7CE01DF91CF911F910F91FF9008
:101300000895AF92BF92CF92DF92FF920F931F93F7
:10131000CF93DF938C015B01EA01FC01C788D08C7D
:10132000F4848F2D0E9465098C179D0720F48F2D62
:101330000E946509EC019E01A501B6018F2D0E9456
:10134000D008F8018789908D8C0F9D1F908F878B17
:10135000CE01DF91CF911F910F91FF90DF90CF9041
:10136000BF90AF900895FC018485883021F063E040
:1013700070E00C94DA0780E00895CF93DF93FC01CE
:1013800024852830D9F0EC010E94B309843189F01A
:10139000882379F0883169F021E08C3159F4E881B3
:1013A000F9810084F185E02DCE01099521E0892B9A
:1013B00009F420E0822FDF91CF91089580E0FBCFE8
:1013C000CF92DF92EF92FF92CF93DF93EC018C8567
:1013D000883089F168E070E00E94E3070E94E20330
:1013E0006B017C01CE010E94B309882391F00E9419
:1013F000E2036C197D098E099F09683E73408105DF
:10140000910538F461E070E080E090E00E94AF0365
:10141000E9CFCE010E94B309882319F08C850E9480
:10142000F307EC85F0E0EE0FFF1FE250FE4F118254
:10143000108288E08C87DF91CF91FF90EF90DF9052
:10144000CF9008954F925F926F927F928F929F926A
:10145000AF92BF92CF92DF92EF92FF921F93CF9302
:10146000DF93CDB7DEB72D970FB6F894DEBF0FBE72
:10147000CDBF7C019EEFA92E91E0B92E10E0D12CBA
:10148000C12C28EE422E23E0522E612C712C3EE31B
:10149000832E31E0932E1C821B824D825E826F82EE
:1014A00078869A8289821D87D5012D913D915D01B3
:1014B000F7018481958128173907B1F4CE0101968F
:1014C0000E94B309843199F1CE0101960E94B309BB
:1014D0008C3151F4CE0101960E944409892B21F4EC
:1014E000CE0101960E94E0091F5F1830A1F6CD28B9
:1014F00041F4D701ED91FC910084F185E02DC70105
:1015000009952D960FB6F894DEBF0FBECDBFDF91C3
:10151000CF911F91FF90EF90DF90CF90BF90AF9051
:101520009F908F907F906F905F904F900895CC2404
:10153000C394D12CD9CFCF92DF92EF92FF921F9319
:10154000CF93DF93182F6B017A010E942809EC01D9
:101550000097D9F463E070E0812F0E94DA078431AC
:1015600059F0882349F0C1E0D0E08C3111F4D0E08B
:10157000C0E0D195C195D109CE01DF91CF911F91E6
:10158000FF90EF90DF90CF900895E816F9060CF4E5
:10159000E7011C161D0684F720E0AE01B601812F7D
:1015A0000E94490860E470E0812F0E94E307E4CFC5
:1015B000CF93DF93FC01218D328D2115310529F464
:1015C0008FEF9FEFDF91CF910895EC018485421753
:1015D000530708F0A9010E949B0A1816190684F700
:1015E000298D3A8D281B390B3A8F298FEBCF0F931A
:1015F0001F93CF93DF931F92CDB7DEB7FC01218DF0
:10160000328D232B41F48FEF9FEF0F90DF91CF911D
:101610001F910F9108958C0141E050E0BE016F5F72
:101620007F4FFC0184850E949B0A181619065CF7FF
:10163000F801818D928D0197928F818F898190E041
:10164000E4CFFC0184850C949B0ACF93DF931F9217
:10165000CDB7DEB741E050E0BE016F5F7F4FFC01C8
:1016600084850E949B0A1816190634F4898190E03B
:101670000F90DF91CF9108958FEF9FEFF9CFCF9328
:10168000FC01C48560E270E08C2F0E94E30762E0F9
:1016900070E08C2F0E94DA0784FD11C062E070E0D8
:1016A0008C2F0E94DA0783FFF2CF48E162E070E0FE
:1016B0008C2F0E94090790E080E0CF91089540E1CF
:1016C00062E070E08C2F0E94090781E090E0F5CF86
:1016D000EF92FF921F93CF93DF93FC012485283074
:1016E00039F080E0DF91CF911F91FF90EF90089546
:1016F0007B01EC0110E063E070E0812F0E94DA07CB
:1017000081110EC01C878C85883059F3FE86ED86CA
:101710001A8E198EA70162E00E94000881E0E2CFD4
:10172000883181F31F5F183031F7EDCF8F929F9290
:10173000AF92BF92CF92DF92EF92FF920F931F93DF
:10174000CF93DF93CDB7DEB72D970FB6F894DEBFFA
:101750000FBECDBF7C0110E000E038EE832E33E0F9
:10176000932EA12CB12C4EE3C42E41E0D42E1C822A
:101770001B828D829E82AF82B886DA82C9820D87F3
:10178000CE0101960E94B309811130C0F701448156
:10179000558161E0802F0E94000863E070E0802F97
:1017A0000E94DA07833129F462E070E0802F0E9402
:1017B000E307F70184819581000F111FF801E250C2
:1017C000FE4F918380832D960FB6F894DEBF0FBE37
:1017D000CDBFDF91CF911F910F91FF90EF90DF90E0
:1017E000CF90BF90AF909F908F9008950F5F1F4F45
:1017F0000830110509F0BBCFE6CF8F929F92AF92D0
:10180000BF92CF92DF92EF92FF920F931F93CF93ED
:101810006C015B017A01FC01C485C830A1F481E050
:1018200090E0F60193838283F12CE12CC701CF91E4
:101830001F910F91FF90EF90DF90CF90BF90AF90EE
:101840009F908F9008958A014130584010F000E039
:1018500018E08C2F0E9465094C0163E070E08C2F2A
:101860000E94DA07873111F08C3109F58016910654
:1018700080F39801A50170E060E08C2F0E94D008F1
:1018800060E270E08C2F0E94E30762E070E08C2F32
:101890000E94DA0784FD0EC063E070E08C2F0E9486
:1018A000DA078111F2CF8C2F0E94F307B8CF10E036
:1018B00000E0DFCF40E162E070E08C2F0E9409077A
:1018C000012B09F0B3CFABCF3F924F925F926F9253
:1018D0007F928F929F92AF92BF92CF92DF92EF92C0
:1018E000FF920F931F93CF93DF93CDB7DEB72D9762
:1018F0000FB6F894DEBF0FBECDBF6C015B014A018D
:101900000E94220A8EEFE82E81E0F82E312C10E0A2
:1019100000E098EE492E93E0592E612C712C1C8228
:101920001B824D825E826F8278868EE391E09A837D
:1019300089833D86F701219131917F01F6018481F0
:1019400095812817390771F4CE0101960E94B309D9
:10195000873141F4A401B501CE0101960E94FD0B2F
:10196000080F191F3394F8E03F12D9CFC8012D9604
:101970000FB6F894DEBF0FBECDBFDF91CF911F91A0
:101980000F91FF90EF90DF90CF90BF90AF909F901E
:101990008F907F906F905F904F903F900895DF926F
:1019A000EF92FF920F931F93CF93DF93FC01248557
:1019B000283051F090E080E0DF91CF911F910F919E
:1019C000FF90EF90DF9008957A01EB018C01D12C0C
:1019D00063E070E08D2D0E94DA07811128C0F801C4
:1019E000D486F8018485883029F320910001309154
:1019F00001012F5F3F4F19F1309301012093000146
:101A0000409100015091010161E00E9400088A812B
:101A10008F3FC1F48B818F3F01F58C818F3FE9F4BB
:101A20008D818F3FD1F488E0F8018487C3CF8B7F0D
:101A30008831A9F2D394F8E0DF12CACFD2CF20E0E8
:101A400034E0DACF811109C08B81811106C08C810D
:101A5000811103C08D81882331F3E114F10419F35E
:101A6000F801D484AE014E5F5F4F6D2D6295660F15
:101A7000607E645F24E030E08CE090E00E94A2058C
:101A80004F2D60E170E08D2D0E9409074E2D61E120
:101A900070E08D2D0E94090764E070E08D2D0E949A
:101AA000E307C8010E94B309873161F061E070E08B
:101AB00080E090E00E94AF03C8010E94B309811149
:101AC000F0CFB1CF81E090E077CF90E080E0089553
:101AD000DC0180E0615090F09D919827E92FEF7034
:101AE000F0E0EC51FE4F2491E92FE295EF70F0E029
:101AF000EC50FE4FE491822F8E27ECCF0895DC014D
:101B00002C911196ED91FC91F8948181822B818327
:101B10009281322F30959323928387E090E0019752
:101B2000F1F781818323818383E290E00197F1F7CC
:101B300090817894EFECF0E03197F1F7922381E017
:101B400009F480E00895FC0190810180F281E02D8C
:101B5000292F209560FF14C0F8948281822382830C
:101B60008181892B8183A3E2B0E01197F1F7828113
:101B7000982B9283789487ED90E00197F1F7089580
:101B8000F8948281822382838181892B8183AFEFC4
:101B9000B0E01197F1F78281982B928378948FE0CF
:101BA00090E0EBCFDF92EF92FF920F931F93CF93D2
:101BB000DF93EC01D62EE42E08E010E0FF24F3942E
:101BC00061E08D2D8F2109F460E0CE010E94A30D0C
:101BD000FF0C01501109A1F7E11010C0F894E98140
:101BE000FA8191818881809589238183E981FA81B5
:101BF000928188818095892382837894DF91CF9127
:101C00001F910F91FF90EF90DF900895EF92FF9258
:101C10000F931F93CF93DF938C017B0140E065E529
:101C20000E94D20DE70188E0E80EF11C699140E0C6
:101C3000C8010E94D20DCE15DF05C1F7DF91CF910B
:101C40001F910F91FF90EF900895FC01908101800A
:101C5000F281E02DF8948181292F209582238183C0
:101C600078943DE743E050E0315029F1DA011197D3
:101C7000F1F780818923C1F3F894828182238283E2
:101C80008181892B81837894ABE7B7E01197F1F7D5
:101C9000F894818182238183A3E1B1E01197F1F768
:101CA0008081982381E009F080E07894E3E6F6E013
:101CB0003197F1F7089580E008958F929F92AF9247
:101CC000BF92CF92DF92EF92FF928091F7039091B3
:101CD000F8030E94250E40E06CEC8091F703909190
:101CE000F8030E94D20D4091F10364E48091F70360
:101CF0009091F8030E94D20D8091F303882399F10B
:101D0000E091F203E9508EEEC82E82E0D82EE33047
:101D100038F4F0E0EE0FFF1FE45AFE4FC080D18090
:101D20008091F403882341F18091F103811124C053
:101D30000E94E2034B015C010D2C000CEE08FF0831
:101D40008091F7039091F8030E947F0D813059F044
:101D50000E94E2036C197D098E099F0968157905B7
:101D60008A059B0568F3FF90EF90DF90CF90BF90BE
:101D7000AF909F908F900895B601DD0C880B990B62
:101D8000FF90EF90DF90CF90BF90AF909F908F909B
:101D90000C94AF03AF92BF92CF92DF92EF92FF927B
:101DA0000F931F93CF93DF938B01BC018091F703B7
:101DB0009091F8030E94060E40E06EEB8091F703CD
:101DC0009091F8030E94D20DE801680189E0C80EE5
:101DD000D11CA090F703B090F80388E0E82EF12C16
:101DE00010E001E0C5010E947F0D8111102B000F52
:101DF00081E0E81AF108B1F71993CC16DD0649F72E
:101E00008091F7039091F8030E94250E91E08130B4
:101E100009F090E0892FDF91CF911F910F91FF90F2
:101E2000EF90DF90CF90BF90AF9008950F931F93E6
:101E3000CF93DF93CDB7DEB729970FB6F894DEBF07
:101E40000FBECDBF8C018091F7039091F8030E94E3
:101E5000250E811102C080E01FC0BE016F5F7F4F61
:101E6000C8010E94CA0E8823B1F368E0CE01019632
:101E70000E94680D99858913EECF8D818F33B9F05B
:101E800020F48F3141F789E007C08F3521F08F377B
:101E900011F78CE001C08BE029960FB6F894DEBFF5
:101EA0000FBECDBFDF91CF911F910F9108958AE0B2
:101EB000F3CFBF92CF92DF92EF92FF920F931F93D7
:101EC000CF93DF93EC01B62EC72E8D85811105C00F
:101ED000CE010E94250E81110EC01B861D861C8618
:101EE00080E0DF91CF911F910F91FF90EF90DF90F5
:101EF000CF90BF90089540E060EFCE010E94D20DD8
:101F000001E0E12CD12C11E0CE010E947F0DF82ED2
:101F1000CE010E947F0D91E0F91218C0813099F531
:101F20001134D8F2DB86D11002C081E08D878B811D
:101F3000882399F22396EB2DFC2DCF010896299149
:101F40002193E817F907D9F781E0CBCFEE2DF0E028
:101F5000F8120FC08B851817A0F4DE01AE0FBF1F5B
:101F600013968C91802379F4F12C193008F41C8796
:101F7000D12EEC0FFD1F8381902F909589238383B1
:101F80000AC08113F1CFFE01EE0DF11D8381802B7C
:101F90008383FF24F3946F2DCE010E94A30D1F5F56
:101FA000000F11F4E39401E087E08E1508F0ACCF48
:101FB000B7CFFF920F931F93CF93DF93F82E062F87
:101FC000C7E0D0E010E061E0802F0E942B038F2D4E
:101FD0000E9402030C2E01C0880F0A94EAF7182B06
:101FE00060E0802F0E942B03219768F7812FDF91FB
:101FF000CF911F910F91FF900895EF92FF920F9351
:102000001F93CF93DF938091D9030E940203892B02
:1020100031F060E070E0CB010E94AF03F4CFDFB796
:10202000F8946091D8038091D9030E94D90F082FAA
:102030006091D8038091D9030E94D90FC82F609175
:10204000D8038091D9030E94D90F182FF12CE12CCD
:102050008091DA038E151F0479F070F061E08091B1
:10206000D8030E942B0360E08091D8030E942B03C9
:102070008FEFE81AF80AECCFDFBF6C2F70E090E02A
:1020800080E0982F872F762F6627802B612B000FFB
:10209000000B10E030E020E0302F2227112700272E
:1020A000602B712B822B932BDF91CF911F910F917E
:1020B000FF90EF900895FB0101900020E9F7319720
:1020C000AF01461B570BDC01ED91FC910280F381BF
:1020D000E02D09948F929F92AF92BF92EF92FF9260
:1020E0000F931F93CF93DF93CDB7DEB7A1970FB6B2
:1020F000F894DEBF0FBECDBF7C01FA01CB0119A25F
:10210000223008F42AE08E010F5D1F4F822E912CA1
:10211000B12CA12CBF01A50194010E94EA27F9016D
:10212000CA016A300CF5605DD8016E938D01232BD6
:10213000242B252B79F790E080E0109721F0BD014A
:10214000C7010E945B10A1960FB6F894DEBF0FBEC8
:10215000CDBFDF91CF911F910F91FF90EF90BF9076
:10216000AF909F908F900895695CDECFCF92DF9201
:10217000EF92FF92CF93DF936B017C016DE283E0DE
:1021800093E00E94CF04EC0144275527BA014C1973
:102190005D096E097F092AE083E093E00E946A10DE
:1021A0008C0F9D1FDF91CF91FF90EF90DF90CF902C
:1021B00008958F929F92AF92BF92CF92DF92EF924B
:1021C000FF920F931F93CF93DF937C01EB016C0180
:1021D00082E0C80ED11C4701E5E08E0E911C10E094
:1021E00000E0F60141916F0150E070E060E02AE00C
:1021F000CE010E946A105C01E881F9810190F081B2
:10220000E02D6EE2CE0109958A0D9B1D080F191F66
:10221000C814D90431F7F701458150E070E060E05F
:102220002AE0CE010E946A10800F911FDF91CF91AA
:102230001F910F91FF90EF90DF90CF90BF90AF90E4
:102240009F908F9008954F925F926F927F928F929E
:102250009F92AF92BF92CF92DF92EF92FF920F9335
:102260001F93CF936B017C01742EAC019B010E94E4
:10227000CB2962EA71E0811126C046015701E8943A
:10228000B7F82FEF3FEF4FE75FE7C501B4010E94BA
:10229000CB2981110CC02FEF3FEF4FE75FE7C5015E
:1022A000B4010E94842666EA71E0181664F02FEFEC
:1022B0003FEF4FE75FE4C701B6010E9430291816CF
:1022C000ACF46AEA71E083E093E0CF911F910F9143
:1022D000FF90EF90DF90CF90BF90AF909F908F9046
:1022E0007F906F905F904F900C945B102FEF3FEFBB
:1022F0004FE75FECC701B6010E94842687FDE1CF5E
:1023000020E030E0A901C701B6010E94842610E058
:1023100000E087FF0AC06DE283E093E00E94CF04F3
:102320008C01F7FAF094F7F8F094C0E060E070E008
:1023300080E09FE37C1641F020E030E040E251E491
:102340000E948828CF5FF6CFA70196010E941C2823
:102350002B013C010E9401294B015C012AE0BC01D8
:10236000A40183E093E00E946A107C01E00EF11E5C
:10237000CC23D1F1C501B4010E9489269B01AC0197
:10238000C301B2010E941B284B015C016EE283E095
:1023900093E00E94CF04E80EF91EC15028F120E01E
:1023A00030E040E251E4C501B4010E94EA262B016D
:1023B0003C010E9401294B01B12CA12C2AE0B5015E
:1023C000A40183E093E00E946A10E80EF91EC501A3
:1023D000B4010E9489269B01AC01C301B2010E9495
:1023E0001B284B015C01D9CFC701CF911F910F91E1
:1023F000FF90EF90DF90CF90BF90AF909F908F9025
:102400007F906F905F904F9008956EEA71E00C940A
:102410005B10CF93DF93BC0183E093E00E945B10DD
:10242000EC0183E093E00E9405128C0F9D1FDF9169
:10243000CF9108950F931F93CF93DF93EC010E94E8
:10244000EF038C01CE010E940512800F911FDF91D6
:10245000CF911F910F9108950F931F93CF93DF9307
:10246000EC0188819981009759F02A813B812617D8
:10247000370730F081E0DF91CF911F910F910895E0
:102480008B016F5F7F4F0E944A2B009759F0998311
:1024900088831B830A832C813D81232B59F7FC0100
:1024A0001082E8CF80E0E7CFEF92FF920F931F9367
:1024B000CF93DF93EC017B01CB010E94ED230097CA
:1024C000A9F00C811D81080F191FB801CE010E94CF
:1024D0002C12882361F0288139818C819D81B7017C
:1024E000820F931F0E94E6231D830C8381E0DF91FE
:1024F000CF911F910F91FF90EF900895EF92FF926F
:102500000F931F93CF93DF936115710541F480E022
:10251000DF91CF911F910F91FF90EF90089541159A
:102520005105B1F07B01EC010C811D81040F151FD9
:10253000B8010E942C12882351F3288139818C81A3
:102540009D81B701820F931F0E94152C1D830C8360
:1025500081E0DECFEF92FF920F931F93CF93DF9333
:10256000CDB7DEB72D970FB6F894DEBF0FBECDBF47
:102570007C01CB01BA012AE08E010F5F1F4FA80139
:102580000E940124F80101900020E9F73197AF0182
:10259000401B510BB801C7010E947E122D960FB649
:1025A000F894DEBF0FBECDBFDF91CF911F910F9189
:1025B000FF90EF900895EF92FF920F931F93CF93A8
:1025C000DF93CDB7DEB728970FB6F894DEBF0FBE06
:1025D000CDBF7C01CB014AE08E010F5F1F4FB801D8
:1025E0000E94F623F80101900020E9F73197AF012E
:1025F000401B510BB801C7010E947E1228960FB6EE
:10260000F894DEBF0FBECDBFDF91CF911F910F9128
:10261000FF90EF900895FB014481558160817181A5
:102620000C947E12CF93DF93EC01888199810097FF
:1026300011F00E945D23198218821D821C821B8268
:102640001A82DF91CF910895CF93DF93EC01198225
:1026500018821B821A821D821C8270E060E00E9438
:102660002C12811105C0CE01DF91CF910C94121371
:102670001D821C8260EB71E088819981DF91CF918E
:102680000C94152CEF92FF920F931F93CF93DF932F
:102690008C017B01EB0109900020E9F72197C61B13
:1026A000D70BBE010E942C12811109C0C801DF9115
:1026B000CF911F910F91FF90EF900C941213F8019E
:1026C000D583C483B70180819181DF91CF911F9120
:1026D0000F91FF90EF900C94152C0F931F93CF93B5
:1026E000DF93CDB7DEB762970FB6F894DEBF0FBEAB
:1026F000CDBF8C01CB01F8011182108213821282AE
:10270000158214824AE0BE016F5F7F4F0E94F6235C
:10271000BE016F5F7F4FC8010E94421362960FB6E1
:10272000F894DEBF0FBECDBFDF91CF911F910F9107
:1027300008950C945D230E94072C0F931F93CF9351
:10274000DF93CDB7DEB728970FB6F894DEBF0FBE84
:10275000CDBF8C01DC01ED91FC910680F781E02D6D
:102760000995F80184850E942809892BB1F148E078
:1027700050E0BE016F5F7F4FD8011C968C910E9484
:102780009B0A18161906F4F4D801519684E0FE014C
:10279000319601900D928A95E1F78D8190E0982F06
:1027A00088272E81820F911DF801968B858B8F8152
:1027B000282F30E0322F22278885820F932F911DFA
:1027C000928F818F28960FB6F894DEBF0FBECDBFD3
:1027D000DF91CF911F910F91089590E080E0F2CFAB
:1027E0004F925F926F927F928F929F92AF92BF9221
:1027F000CF92DF92EF92FF920F931F93CF93DF93CD
:10280000CDB7DEB763970FB6F894DEBF0FBECDBF6E
:102810007C016B013A01FB01DB018D918111FDCF40
:1028200030E020E090E080E05AE04191442301F163
:10283000843091050CF042C04E3269F42F3F3105CF
:1028400009F0E4F5D301A80FB91F12962C93019655
:1028500030E020E0EACF529FB001539F700D112469
:10286000242F440F330B20533109260F371FDDCFA0
:102870002F3F310509F014F584309105FCF4680E02
:10288000791EF3012283CC24C394D12CC601639614
:102890000FB6F894DEBF0FBECDBFDF91CF911F9171
:1028A0000F91FF90EF90DF90CF90BF90AF909F90EF
:1028B0008F907F906F905F904F900895F7014281C5
:1028C0005381648175818091F9029091FA02A091FF
:1028D000FB02B091FC02481759076A077B0709F40D
:1028E00000C28701085F1F4F0E94E2036F707727C5
:1028F0007C5FC8010E94680B813009F0F7C180EA53
:1029000091E09A838983F70182819381A481B581C3
:102910008B839C83AD83BE8345E350E0BE016F5F34
:102920007F4FC8010E943B07892B31F4D12CC12C69
:10293000C8010E943408AACF0E94E203F7017783FE
:10294000668342E050E0B7016A5F7F4FC8010E9492
:10295000810981E090E09A83898342E050E0BE01E2
:102960006F5F7F4FC8010E94810980E091E09A83E8
:10297000898342E050E0BE016F5F7F4FC8010E9433
:1029800081091A82198242E050E0BE016F5F7F4FD9
:10299000C8010E94810942E050E0BE016F5F7F4F95
:1029A000C8010E94810942E050E0BE016F5F7F4F85
:1029B000C8010E9481095601F6018081882301F136
:1029C0006501F60181912F01882311F08E32B1F457
:1029D00046018A189B081814190474F48D8641E086
:1029E00050E0BE01635F7F4FC8010E948109A401CE
:1029F000B501C8010E9481095201DECF6201E1CF19
:102A00001D8641E050E0BE01635F7F4FC8010E9418
:102A10008109C12CDD24D394DA82C98242E050E0DE
:102A2000BE016F5F7F4FC8010E948109DA82C982AF
:102A300042E050E0BE016F5F7F4FC8010E948109F4
:102A4000C8010E943F0B892B09F470CFF3E0AF2E31
:102A5000B12C230122E0420E511C43C0F7014281F8
:102A6000538164817581818D928DA38DB48D4817BA
:102A700059076A077B0709F02AC1858D968DC5978E
:102A800009F025C181A192A10C970CF425C14CE05D
:102A900050E0BE016F5F7F4FC8010E94D80A8B8152
:102AA0009C819827892798279A8B898BF7014681E3
:102AB000578129813A814217530711F497FD2FC09E
:102AC000C8010E941307ECEFCE2EDD24DA9481E0DA
:102AD000A81AB10809F42CCFFFEFCF16DF0609F0D2
:102AE00027CF0E94E2033B014C01C8010E949D13C5
:102AF000181619060CF4B2CF0E94E2036619770982
:102B000088099909693873418105910508F0DBC08E
:102B100062E370E080E090E00E94AF03E6CF8F7048
:102B20009270892B41F0C8010E9413077BEFC72EDA
:102B3000DD24DA94CCCF6F807884762467247624E1
:102B4000D12CC12C61147104D1F4C8010E94130767
:102B50006AEFC62EDD24DA94BACF8D85811117C0B5
:102B6000C8010E94F70AC8010E94F70AC8010E9422
:102B7000F70AC8010E94F70AFFEFCF1ADF0A8D811A
:102B80009E81982789279827C816D906A8F441E07E
:102B900050E0BE01635F7F4FC8010E94D80A8D8557
:102BA0008823D9F28D859FEF980F9D878823A9F2FE
:102BB000C8010E94F70AF6CF912C812C41E050E029
:102BC000BE016D5E7F4FC8010E94D80A8B89982F85
:102BD000907C61F4882389F08B899FEF980F9B8B01
:102BE000882341F0C8010E94F70AF6CFC8010E946D
:102BF000F70A1B8A8B898111E1CF42E050E0BE01C8
:102C0000615F7F4FC8010E94D80A42E050E0BE01D8
:102C1000635F7F4FC8010E94D80AC8010E94F70A6B
:102C2000C8010E94F70AC8010E94F70AC8010E9461
:102C3000F70A42E050E0BE016F5E7F4FC8010E947C
:102C4000D80A8F85988981159140E9F4CD84DE8476
:102C5000DC24CD24DC2481E0C816D104A1F48989C8
:102C60009A898115944041F0C8010E94130757EFDB
:102C7000C52EDD24DA942BCF44E050E0B201C80128
:102C80000E94D80A24CFD12CC12C89899A899827EF
:102C900089279827C816D90638F4C8010E94F70A70
:102CA000FFEFCF1ADF0AF1CF2FEF821A920A6814D2
:102CB000790409F083CFC8010E94130746EFC42EA0
:102CC000DD24DA9404CFCC24CA94DC2C00CF2EEF80
:102CD000C22EDD24DA94FBCE9DEFC92EDD24DA94DA
:102CE000F6CE8EEFC82EDD24DA94D0CDD12CC12CB7
:102CF000CDCDCF92DF92EF92FF920F931F93CF93A0
:102D0000DF93CDB7DEB7AF970FB6F894DEBF0FBE37
:102D1000CDBF7C016A0100EA11E01A8309831C8699
:102D20001B8688EE93E0A0E0B0E08D879E87AF879A
:102D3000B88B86E191E09A87898788E08D8B198F1F
:102D4000088F1A8E1B8E1C8E1D8E1BA70AA71CA611
:102D50001DA61EA61FA68091B6039091B703A09151
:102D6000B803B091B9038EA39FA3A8A7B9A78B837B
:102D70009C83AD83BE8318861F82AE01465D5F4F84
:102D8000CE0101960E94F01381309105B1F4D70174
:102D9000ED91FC910488F589E02D1DA30CA38CA571
:102DA0009DA5AEA5BFA58EA39FA3A8A7B9A7A60161
:102DB000BE016C5D7F4FC7010995AF960FB6F894C1
:102DC000DEBF0FBECDBFDF91CF911F910F91FF905E
:102DD000EF90DF90CF900895CF92DF92EF92FF9225
:102DE0000F931F93CF93DF93CDB7DEB7AF970FB697
:102DF000F894DEBF0FBECDBF7C016A0100EA11E08E
:102E00001A8309831C861B8688EE93E0A0E0B0E05D
:102E10008D879E87AF87B88B86E191E09A878987F7
:102E200088E08D8B198F088F1A8E1B8E1C8E1D8E3D
:102E30001BA70AA71CA61DA61EA61FA68091B60347
:102E40009091B703A091B803B091B9038EA39FA34B
:102E5000A8A7B9A78B839C83AD83BE8318861F82E6
:102E6000AE01465D5F4FCE0101960E94F0138130A6
:102E70009105B1F4D701ED91FC910684F785E02D21
:102E80001DA30CA38CA59DA5AEA5BFA58EA39FA336
:102E9000A8A7B9A7A601BE016C5D7F4FC701099520
:102EA000AF960FB6F894DEBF0FBECDBFDF91CF91C6
:102EB0001F910F91FF90EF90DF90CF9008951F9298
:102EC0000F920FB60F9211242F933F934F935F935E
:102ED0006F937F938F939F93AF93BF93EF93FF93E2
:102EE0008091B900887F803609F44AC0F0F58832B5
:102EF00009F4A5C018F5803109F499C0B8F4882305
:102F000009F4F5C0883009F492C0FF91EF91BF91A8
:102F1000AF919F918F917F916F915F914F913F9171
:102F20002F910F900FBE0F901F901895883109F4C4
:102F300086C0803251F78093C00214C0803409F4F7
:102F40009BC040F48033B9F38833F9F68093C00214
:102F500085ECAEC0803509F483C0883509F494C08F
:102F6000883499F60E941E02D0CF883909F48AC0AD
:102F700038F5883729F050F4883611F0803729F673
:102F800083E08093C1021092BF0255C0883809F4D3
:102F900079C0803919F0803809F0B7CF8091BF022D
:102FA000803208F06FC0E091BF0281E08E0F809305
:102FB000BF028091BB00F0E0E156FD4F80833BC033
:102FC000803B39F0D0F4803A09F477C0883A09F0B0
:102FD0009CCF84E08093C10210929E0210929D02C9
:102FE000F0E0E0E0099580919D0281110FC081E041
:102FF00080939D0210927D0209C0803C09F4A8CF05
:10300000883C09F4A5CF883B09F07FCFE0919E0270
:1030100081E08E0F80939E02F0E0E358FD4F8081A7
:103020008093BB0090919E0280919D0229C0809167
:10303000E6028093BB0085EC8093BC0066CF909144
:10304000E5028091E402981758F5E091E50281E0ED
:103050008E0F8093E502F0E0EC53FD4F8081E9CFC5
:10306000E091E50281E08E0F8093E5028091BB0044
:10307000F0E0EC53FD4F80839091E5028091E402F3
:103080009817C8F285E8D8CFE091E50281E08E0F6D
:103090008093E5028091BB00F0E0EC53FD4F80830C
:1030A0008091C30281115ECF81E08093C20284EAE5
:1030B0008093BC001092C10228CF85EC8093BC00A5
:1030C0001092C1028091BF02803230F4E091BF02C1
:1030D000F0E0E156FD4F10826091BF0270E08FE991
:1030E00092E0F0E0E0E009951092BF020ECF10925E
:1030F000C00238CF1F920F920FB60F9211242F9358
:103100003F938F939F93AF93BF93809130029091A1
:103110003102A0913202B091330230912F0223E0AC
:10312000230F2D3758F50196A11DB11D20932F02B5
:103130008093300290933102A0933202B093330215
:103140008091340290913502A0913602B0913702FD
:103150000196A11DB11D8093340290933502A09376
:103160003602B0933702BF91AF919F918F913F91FB
:103170002F910F900FBE0F901F90189526E8230FE8
:103180000296A11DB11DD2CF1F920F920FB60F92C2
:1031900011242F933F934F935F936F937F938F935C
:1031A0009F93AF93BF93EF93FF93E0910401F0914E
:1031B00005010995FF91EF91BF91AF919F918F917B
:1031C0007F916F915F914F913F912F910F900FBE23
:1031D0000F901F9018951F920F920FB60F92112407
:1031E0002F933F934F935F936F937F938F939F930F
:1031F000AF93BF93EF93FF93E0910201F09103012E
:103200000995FF91EF91BF91AF919F918F917F9120
:103210006F915F914F913F912F910F900FBE0F9043
:103220001F9018951F920F920FB60F9211242F9393
:103230003F934F935F936F937F938F939F93AF933E
:10324000BF93EF93FF9383E093E00E94AD04FF915F
:10325000EF91BF91AF919F918F917F916F915F910E
:103260004F913F912F910F900FBE0F901F90189587
:103270001F920F920FB60F9211242F938F939F934B
:10328000EF93FF93E0911303F09114038081E09199
:103290001903F0911A0382FD1BC0908180911C03D9
:1032A0008F5F8F7320911D03821741F0E0911C0303
:1032B000F0E0ED5FFC4F958F80931C03FF91EF9141
:1032C0009F918F912F910F900FBE0F901F90189587
:1032D0008081F4CFCF93EBEEF2E01382128248EEBE
:1032E00053E060E070E0448355836683778386E62D
:1032F00091E091838083E7EFF2E080EA91E09183AF
:1033000080831282138214821582EDEFF2E09183A2
:1033100080831282138214821582E3E0F3E0138229
:103320001282448355836683778328E731E03183B3
:10333000208325EC30E03587248724EC30E0378784
:10334000268720EC30E0318B208B21EC30E0338B72
:10335000228B22EC30E0358B248B26EC30E0378B4F
:10336000268B118E128E138E148EE0EAF3E020E588
:103370002083C1E0C183E2EAF3E09183808312827B
:10338000138214821582E8EAF3E09183808312822B
:10339000138214821582EEEAF3E091838083128215
:1033A000138214821582E1ECF3E091838083128210
:1033B000138214821582E4EBF3E0918380831282FE
:1033C000138214821582138612862AE02487EFE185
:1033D000F4E0918380831282138214821582E9E1E2
:1033E000F4E09183808380EC828388EA8383C483C2
:1033F0008FE68583E3E1F4E01382128282E991E0B3
:10340000918380838FEA9CE99583848360E089E0DF
:103410000E945903EAEDF3E0E491A5E0B4E0EC93F7
:10342000E6ECF3E0E491F0E0EE0FFF1FED54FC4F0B
:103430008591949112969C938E9311971B961C9252
:103440001B971D961C921D971C961C921C971A96F2
:103450001C921A9719961C92199718961C921897F5
:1034600017961C92179716961C92169715961C92F3
:10347000159714961C92149713961C921397E1EFCC
:10348000F3E0B783A68314821582108289E08183DA
:10349000C283C383138A128AE3EEF3E0108211829F
:1034A0001282138214821582168217821186108668
:1034B0001286138681E090E095878487E6EDF3E03D
:1034C0008AE891E0918380831582168217821086A4
:1034D00080E090E0A0E8BFE381879287A387B4876C
:1034E00088E68093C703CF910895CF93DF93CDB73C
:1034F000DEB7CE54D1090FB6F894DEBF0FBECDBFF4
:10350000789484B5826084BD84B5816084BD85B5BE
:10351000826085BD85B5816085BD80916E008160CA
:1035200080936E0010928100809181008260809370
:103530008100809181008160809381008091800072
:103540008160809380008091B10084608093B1009D
:103550008091B00081608093B00080917A00846097
:1035600080937A0080917A00826080937A008091C3
:103570007A00816080937A0080917A0080688093DD
:103580007A001092C100E0911303F091140382E0DD
:103590008083E0910F03F09110031082E0911103FA
:1035A000F09112038FEC808310921B03E0911703BC
:1035B000F091180386E08083E0911503F0911603E3
:1035C000808180618083E0911503F09116038081F2
:1035D00088608083E0911503F091160380818068F4
:1035E0008083E0911503F091160380818F7D8083A5
:1035F00081EB91E00E9409126CE772E083E093E0B6
:103600000E94EF039E012F5F3F4F19018091250417
:1036100090912604009711F489E294E0A101481BDF
:10362000590B052E000C660B770B77FFC8C0CB013A
:10363000BA010E94B61083E093E00E94051200EAEE
:1036400011E01A83098380911B0490911C04A091BE
:103650001D04B0911E048B839C83AD83BE83C10186
:103660000E94F5056EE172E083E093E00E941A1279
:1036700064E072E083E093E00E94EF031A83098321
:103680001B821C821D821E8224E030E0AE014D5F51
:103690005F4F60E08FE090E00E94510563E073E0CF
:1036A000C1010E94D91083E093E00E94051283E1DA
:1036B00094E00E94960B60E082E00E94590380E44F
:1036C00094E09093030180930201809169008C7FC4
:1036D000826080936900E89A7894E091F703F09112
:1036E000F8031386158614861286118610861782B3
:1036F00016821582148213821092F5031092F6033B
:1037000001E0B1018091F7039091F8030E94590FF5
:10371000882309F469C067E0C1010E94680D98859B
:103720008913EFCF8091F103811126C08091F703B7
:103730009091F8030E94250EB1018091F7039091BA
:10374000F8030E94060E40E064EB8091F70390912D
:10375000F8030E94D20D8091F7039091F8030E9424
:103760007F0D182F8091F7039091F8030E94250E8A
:10377000111102C00093F1031091F203898180318D
:1037800009F4DDC6C1010E94160F8117F0F4809183
:10379000F2038093F2038091F5038F5F8093F5032A
:1037A0008981883231F0D0F4803119F0823209F009
:1037B000A8CF8091F6038F5F8093F603A2CF2AE013
:1037C00083E093E00E946A1036CF8981803111F442
:1037D0008CE0DFCFC1010E94160FDBCF8B3349F3A2
:1037E000823409F08ECFE5CF8091F50390E090937D
:1037F0002E0280932D020E945D0E87E791E0A0E0EB
:10380000B0E08093E3039093E403A093E503B093C7
:10381000E6030E94E2036093E7037093E80380935A
:10382000E9039093EA031092F0031092EF031092D1
:10383000ED031092EE0363E472E083E093E00E94F4
:103840001A1285E08093D80386E08093D90361E063
:1038500085E00E94590360E08091D9030E945903DA
:1038600082E08093DA0360E08091D8030E942B030A
:103870000E94FD0F6FE272E083E093E00E941A1253
:1038800083E093E00E940512AE01495C5F4F2596EC
:103890005FAF4EAF2597CE0101963C010E94E20337
:1038A0000E94E20383E194E00E94220A0EEF11E0FD
:1038B000D12CAEE3EA2EA1E0FA2E1C821B8228EE68
:1038C00033E040E050E02D833E834F835887FA82F7
:1038D000E982DD86D8012D913D918D0180911704FB
:1038E0009091180428173907C1F5C1010E94B30946
:1038F000873171F5C1010E944409892B71F18B81D7
:103900009C819DA38CA38D819E81AF81B8858EA360
:103910009FA3A8A7B9A789859A85AB85BC858AA7E7
:103920009BA7ACA7BDA78EE391E09BA38AA38D853F
:103930008EA78EA5883009F4EFC5CE0182960E942D
:103940004409892BF1F0CE0182960E94250BF5CF18
:10395000C1010E94B3098C3169F2D394B8E0DB1243
:10396000ACCF1DA21CA228EE33E040E050E02EA315
:103970003FA348A759A78EE391E09BA38AA3DEA6A5
:10398000D8CF8091EF039091F003892B09F50E9425
:10399000E2030091E7031091E8032091E9033091DD
:1039A000EA03601B710B820B930B0091E3031091F0
:1039B000E4032091E5033091E60360177107820765
:1039C000930730F081E090E09093F0038093EF0351
:1039D0008091EF039091F0030197A1F40E94E2031C
:1039E0006093E7037093E8038093E9039093EA03FD
:1039F0001092F0031092EF031092ED031092EE0379
:103A00000E945D0ECE01CD960E94241369E473E0FE
:103A1000CE01CD960E9454126CE373E0CE01CD9698
:103A20000E9454126EE273E0CE01CD960E945412B1
:103A30006CE273E0CE01CD960E94541260E273E016
:103A4000CE01CD960E94541268E070E0CE01CD9672
:103A50000E94DB126EE173E0CE01CD960E945412FB
:103A600063E173E0CE01CD960E94541263E073E0EF
:103A7000CE01CD960E94541288E070E060E040E4F0
:103A800040937C0090917A00906490937A0090919A
:103A90007A0096FDFCCF9091780020917900322F2A
:103AA000292F620F731F815059F7F3E076956795C0
:103AB000FA95E1F790E080E00E9489262AE939E949
:103AC0004CEC52E40E941B2820E030E047E253E433
:103AD0000E9488286B017C0167E872E083E093E034
:103AE0000E94EF0342E0C701B6010E94231183E068
:103AF00093E00E94051218AA1FA61AAA19AA1CAAC6
:103B00001BAA810122E044E0C701B6010E94A32262
:103B1000AE01415D5F4F2A01009709F48BC1BC01E2
:103B2000CA010E944213B201CE01CD960E940B132E
:103B30008FA598A90E945D2361E073E0CE01CD9628
:103B40000E9454126DEE72E0CE01CD960E94541286
:103B50000E94FD0F8B019C01005A1648214031093B
:103B6000013A1D4C2748310508F001C261597C48D3
:103B7000864191090E948B2626EB3EE740E059E3FF
:103B80000E94EA2620E030E040ED52E40E941C282A
:103B900060931202709313028093140290931502A3
:103BA00064EC71E083E093E00E945B10609112028C
:103BB00070911302809114029091150243E00E94CB
:103BC000231169EC71E083E093E00E945B10C090E8
:103BD0001202D0901302E0901402F090150220E03F
:103BE00030E048EC52E4C701B6010E94302987FD5D
:103BF00025C120E030E048EC52E4C701B6010E9444
:103C00001B2820E83AE543E758E30E9488289B01F7
:103C1000AC016DE871E18DE29BE40E941B280E94DB
:103C20008B299B01AC0165E27DE782E595E40E946A
:103C30001B2860930E0270930F02809310029093E2
:103C4000110266ED71E083E093E00E945B106091E9
:103C50000E0270910F02809110029091110243E0C8
:103C60000E94231183EE91E00E94091260910E02DE
:103C700070910F0280911002909111020E94FA2817
:103C8000C1010E946D13B101CE01CD960E940B13AC
:103C900089819A810E945D23D12C80912D0290917F
:103CA0002E02D816190608F072C1E091F703F091C0
:103CB000F8031386158614861286118610861782DD
:103CC000168215821482138210E0B2018091F703EC
:103CD0009091F8030E94590F882331F0D11609F40E
:103CE00049C11F5FD11688F769EE72E0CE01CD960B
:103CF0000E9454127201D7018D917D01803140F4F0
:103D000041E050E064EF71E0CE01CD960E947E125A
:103D1000F7013197808118AE1FAA1AAE19AE1CAEFA
:103D20001BAE40E1B10190E00E942324B101CE011D
:103D3000C7960E944213BE01695C7F4FCE01CD96AB
:103D40000E940B138FA998AD0E945D232596EEADBE
:103D5000FFAD2597EE16FF0671F666EE72E0CE0116
:103D6000CD960E9454128091F7039091F8030E941F
:103D7000250E882309F406C1B101C2010E94CA0EB2
:103D8000882309F4FFC068E0C1010E94680D99858D
:103D90008913F8C06A8170E0762F6627770F770F56
:103DA000770F2981F8E02F9F90011124262B372BC4
:103DB0008FA58031D1F4688570E08F81AB01481BFD
:103DC0005109CA019695982F8827979587950E9443
:103DD0001C2BCB014097B90153E0660F771F5A9512
:103DE000E1F760789C01260F371F213854EE350724
:103DF0000CF4C8C0B901330F880B990B0E948B26B5
:103E000020E030E040E05CE30E94EA26810122E00D
:103E100044E00E94A322FC0101900020E9F73197C1
:103E2000AF01481B590BBC01CE01CD960E947E12FA
:103E3000D39433CFCA010E94121375CE20E030E034
:103E400040EA50E4C701B6010E9435294B015C01EC
:103E500020E030E040E850E4C701B6010E94352977
:103E600029966CAF7DAF8EAF9FAF299720E030E0F1
:103E700040E450E4C701B6010E9435292D966CAF8D
:103E80007DAF8EAF9FAF2D972FE73AE64CEC5FE307
:103E9000C501B4010E94EA262FEF36EE4BED5EE23B
:103EA0000E94EA264B015C012FE23DED4CE350E419
:103EB00029966CAD7DAD8EAD9FAD29970E94EA2607
:103EC00027E73CEC4BE252E30E94EA269B01AC015F
:103ED000C501B4010E941B284B015C0127E836E1B3
:103EE00049E950E42D966CAD7DAD8EAD9FAD2D971B
:103EF0000E94EA262DEB37E346E855E30E94EA26C6
:103F00009B01AC01C501B4010E941B284B015C015F
:103F1000A7019601C701B6010E94EA2624E63BE309
:103F200047E250E40E94EA262FE632E143E85AE3F2
:103F30000E94EA269B01AC01C501B4010E941C2825
:103F40004B015C0129E134E04EE050E4C701B601C9
:103F50000E94EA2626E636EE41E753E40E941B283B
:103F60009B01AC01C501B4010E941C2862CE89EE00
:103F700091E07ACE67E0C2010E94680D9EA9891384
:103F8000B0CEB2CE60E070E08EEF92EC3FCF64EE48
:103F900072E0CE01CD960E94541268ED72E0CE011F
:103FA000CD960E9454120E94E20300911A021091D1
:103FB0001B0220911C0230911D026B017C01C01A72
:103FC000D10AE20AF30A88E9C8168AE3D806E104AE
:103FD000F104D8F1E8988EEE93E09093030180937A
:103FE000020120911602309117024091180250915F
:103FF0001902A8E9BAE30E94A827A70196010E9426
:10400000EA2769010E94E20360931A0270931B027F
:1040100080931C0290931D021092160210921702B8
:10402000109218021092190280E494E09093030118
:1040300080930201809169008C7F82608093690087
:10404000E89A2F96DFAECEAE2F972F966EAD7FAD4E
:104050002F97C1010E946D13B101CE01CD960E9430
:104060000B1389819A810E945D2365ED72E0CE0178
:10407000CD960E94541263ED72E0CE01CD960E945F
:10408000541264EC72E0CE01CD960E94541210914D
:10409000C7030E94E2036B017C0181E080935A0216
:1040A00010931E0210925802109259026BE38BEE8D
:1040B00092E00E94A60290915902913208F042C00B
:1040C0008091C1028111FCCF82E08093C10281E026
:1040D0008093C3028FEF8093C0021092E502909309
:1040E000E402A8E3B2E0E4ECF2E080E098135DC003
:1040F0001092E6029091E602812F880F892B80931F
:10410000E6028091C202813061F41092C202809175
:10411000E6028093BB008091BC0083FDF8CF85EC64
:1041200001C085EE8093BC008091C1028230E1F332
:104130008091C0028F3F31F08091C002803211F037
:104140008091C002109258021092590281E080932F
:104150005A0210931E028091C1028111FCCF81E0AE
:104160008093C1028093C3029FEF9093C00210928C
:10417000E5029DE09093E4028093E6029091E602CE
:10418000812F880F892B8093E6028091C2028130B3
:1041900099F41092C2028091E6028093BB00809154
:1041A000BC0083FDF8CF85EC08C02D9121938F5F73
:1041B0009DCF8091E5020CC085EE8093BC0080917C
:1041C000C1028130E1F38091E5028E3090F38EE000
:1041D000A4ECB2E0EBE5F2E010E0811721F09D9154
:1041E00091931F5FFACF10927C0210937B0200E044
:1041F00080917C021817C1F00E94E2036C197D09BE
:104200008E099F09683E73408105910568F48BEE25
:1042100092E00E945F02E02F002E000CFF0BE8539B
:10422000FC4F80830F5FE4CF0E94E2038091C803BC
:104230009091C90398278927982790932C028093FF
:104240002B022091CA033091CB0332272327322738
:1042500030932A02209329022091CC033091CD0380
:1042600032272327322730932802209327022091D8
:10427000D0033091D10332272327322730932602EF
:10428000209325022091D2033091D3033227232794
:10429000322730932402209323022091D4033091BB
:1042A000D50332272327322730932202209321027D
:1042B0006DE870E00E941C2B6C5D7F4F70932002B4
:1042C00060931F0266EF71E083E093E00E945B1051
:1042D00040911F0250912002052E000C660B770BB7
:1042E00077FF27C1CB01BA010E94B61083E093E0AB
:1042F0000E94051260911F0270912002CE01CD969E
:104300000E94DB1267EB72E0CE01CD960E94541240
:104310008091250490912604009711F489E294E09D
:10432000B301681B790BCE01CD960E94DB126AEABD
:1043300072E0CE01CD960E9454120E94E2034B011E
:104340005C0128EE33E040E050E00E94EA2769017A
:104350007A01C3010E942413B1E8CB16B1E5DB0654
:10436000B1E0EB06F10460F1C501B40120E03CE5E9
:1043700046E255E00E94EA2749015A014AE0B201AB
:10438000C4010E94F623F20101900020E9F7319761
:10439000AF0144195509B201C3010E947E1263EABC
:1043A00072E0C3010E945412A501940160E871E516
:1043B00081E090E00E940C2BC61AD70AE80AF90A9D
:1043C000E1E1CE16EEE0DE06E104F104F0F0F0EA01
:1043D000CF16FCE8DF06E104F10428F461EA72E09C
:1043E000C3010E945412C701B60120E13EE040E043
:1043F00050E00E94EA27BA01A901C3010E94AA1253
:104400006FE972E0C3010E945412C701B6012CE3A8
:1044100030E040E050E00E94EA27CA01B9012CE3F5
:1044200030E040E050E00E94EA274B015C012AE0C6
:1044300082169104A104B10428F46DE972E0C3016D
:104440000E945412B501A401C3010E94AA126BE993
:1044500072E0C3010E945412C701B6012CE330E0A0
:1044600040E050E00E94EA276B017C013AE0C3166D
:10447000D104E104F10428F469E972E0C3010E9467
:104480005412B701A601C3010E94AA12B301CE01C2
:10449000CD960E940B1389819A810E945D2366EA62
:1044A00072E0CE01CD960E9454126BE773E0CE010C
:1044B00082960E941A126CE573E0CE0182960E94E9
:1044C0001A126BE473E0CE0182960E94EF032396EA
:1044D0004EAD5FAD239770E060E02AE0CE0182969A
:1044E0000E946A10CE0182960E940512CE01829629
:1044F0000E94051223964EAD5FAD23976DAD7EAD44
:10450000CE0182960E94FD0BCE0182960E94E009A8
:104510008DAD9EAD0E945D2380E090E0892B09F473
:10452000BDC90E949904882309F4B8C90E940000FB
:10453000B5C92AE083E093E00E946A10D7CE1D300F
:1045400008F025C945C9EF920F931F93CF93DF93CE
:10455000E80134E047FD34E1042E000C550B57FF11
:1045600003C0519541955109E32E022F242FAE012E
:104570000E943D24CE01DF91CF911F910F91EF90CA
:1045800008950F931F93CF93DF938230910510F41A
:1045900082E090E0E0912704F091280430E020E0F0
:1045A000B0E0A0E0309799F42115310509F44AC034
:1045B000281B390B24303105D8F58A819B81611580
:1045C000710589F1FB0193838283FE0111C0408153
:1045D00051810281138148175907E0F048175907A4
:1045E00099F4109761F012960C93129713961C93FE
:1045F0003296CF01DF91CF911F910F9108950093D3
:10460000270410932804F4CF2115310551F04217E7
:10461000530738F0A901DB019A01BD01DF01F80160
:10462000C1CFEF01F9CF9093280480932704CDCF19
:10463000FE01E20FF31F81939193225031093983D8
:104640002883D7CF2091250430912604232B41F4D1
:1046500020910E0130910F01309326042093250400
:1046600020910C0130910D012115310541F42DB738
:104670003EB74091100150911101241B350BE09180
:104680002504F0912604E217F307A0F42E1B3F0B3C
:104690002817390778F0AC014E5F5F4F24173507B4
:1046A00048F04E0F5F1F50932604409325048193DA
:1046B00091939FCFF0E0E0E09CCFCF93DF93009702
:1046C000E9F0FC01329713821282A0912704B09185
:1046D0002804ED0130E020E01097A1F42081318121
:1046E000820F931F20912504309126042817390743
:1046F00009F061C0F0932604E0932504DF91CF9187
:104700000895EA01CE17DF07E8F54A815B819E0133
:1047100041155105B1F7E901FB83EA8349915991AC
:10472000C40FD51FEC17FD0761F4808191810296BB
:10473000840F951FE90199838883828193819B83EC
:104740008A83F0E0E0E012968D919C911397009798
:10475000B9F52D913C911197CD010296820F931FCF
:1047600020912504309126042817390739F630970F
:1047700051F51092280410922704B0932604A093B8
:104780002504BCCFD383C28340815181840F951F00
:10479000C817D90761F44E5F5F4F88819981480F30
:1047A000591F518340838A819B8193838283211582
:1047B000310509F0B0CFF0932804E09327049ECF91
:1047C000FD01DC01C0CF13821282D7CFFB01DC01D7
:1047D00005900D920020E1F70895FC01059000205E
:1047E000E9F7809590958E0F9F1F0895BB274A305B
:1047F00031F4992322F4BDE2909581959F4F0C945A
:104800002424BB27FA01A62F6217710581059105A3
:10481000330B30FB66F0AA27660F771F881F991F9E
:10482000AA1FA21710F0A21B63953850A9F7A05D2C
:10483000AA3308F0A95DA19336F7B111B1931082A4
:10484000CA010C947426BB27FB015527AA27880FA1
:10485000991FAA1FA41710F0A41B83955051B9F7F4
:10486000A05DAA3308F0A95DA193009779F7B11173
:10487000B1931192CB010C947426A9E0B0E0E3E46B
:10488000F4E20C94B9276A01F22EB02E102FFBE34C
:10489000AF2EA01608F41BE31F5F012F27E0AE0127
:1048A0004F5F5F4F0E949C25BC018981982F9970B2
:1048B000913009F43FC09BE2E1FC04C09E2D917051
:1048C000E0FC3AC05E2D5071E82FE87083FF46C0CF
:1048D00084E0911101C083E0EF2DE81B8F1508F0F3
:1048E000E0E0D6018E2F20E2552351F1992329F0E3
:1048F000D6019C93C60101966C0196012D5F3F4F36
:10490000E2FE24C08EE4D6018C9391E411969C9330
:10491000119712968C93D9018E2F90E281111BC0B2
:10492000E20FF32FF11D10828EEF9FEF2996ECE03E
:104930000C94D5279DE2C6CF90E2C4CF2D93815031
:104940008111FCCFCE0ED11CE0E0D0CF8EE6D60197
:104950008C9391E6DBCF9D938150E0CF482F44703C
:1049600082FF3DC084E0911101C083E08F1510F4F7
:10497000EF2DE81BD6018E2F20E2552309F1992354
:1049800029F0D6019C93C60101966C0196012D5F1A
:104990003F4FE2FE1BC089E4D6018C938EE4119652
:1049A0008C93119786E412968C93D9018E2F90E206
:1049B000882309F4B5CF9D938150FACF2D93815070
:1049C0008111FCCFCE0ED11CE0E0D9CF89E6D60113
:1049D0008C938EE611968C93119786E6E4CF9B011B
:1049E00077FF02C030E020E0A1E0B0E0911102C00A
:1049F000B0E0A0E0F9013196AE0FBF1F8B2C912CD7
:104A0000BB2009F461C05401EFEFAE1ABE0AAA0D33
:104A1000BB1DFA161B0619F014F04F2D4A1B51113D
:104A200088C0E3FC59C07601A42FB0E2A1114FC0A9
:104A3000C40ED11C992309F45BC040E0D601119645
:104A4000F60190836D01552309F448C0012F060F2C
:104A50009A81582F507184FF03C0913309F401509B
:104A600010160CF047C0093008F008E0EEE2FE2E08
:104A70005B01A01AB10885019194819491082F3FA0
:104A8000320729F4D601FC92F60131966F016217C4
:104A9000730794F1021713077CF5DB01A21BB30B1C
:104AA000AA24A394B12CAC0EBD1EAA0DBB1D119659
:104AB0008C9121503109D601119628153905F4F051
:104AC000F60180836D01DBCFB12CA12CA0CFF701C3
:104AD000B1937F01A150AACF9111B0CFD601942FED
:104AE00050E302C05D9391509111FCCFC40ED11CD4
:104AF00040E0ACCF01E0BACF80E3DBCF62177307B1
:104B000031F4963388F4953311F4552369F0F601A6
:104B10008083FD01842F90E2811108C0A40FB11D94
:104B20001C9290E080E002CF81E3F1CF919381501D
:104B3000F3CF911183CF8ACF283008F027E03327B5
:104B4000DA01990F311D87FD9160009661057105AD
:104B500039F432602E5F3D9330E32A95E1F70895F2
:104B60009F3F30F080387105610509F03C5F3C5F84
:104B70003D93913008F08068911DDF93CF931F9390
:104B80000F93FF92EF92192F987F9695E92F9695A4
:104B90009695E90FFF27EC5BFE4F99273327EE240C
:104BA000FF24A701E70105900894079428F4360F25
:104BB000E71EF81E491F511D660F771F881F991F9A
:104BC0000694A1F70590079428F4E70EF81E491FF4
:104BD000561FC11D770F881F991F661F0694A1F7E6
:104BE0000590079428F4F80E491F561FC71FD11DC2
:104BF000880F991F661F771F0694A1F705900794E9
:104C000020F4490F561FC71FD81F990F661F771F23
:104C1000881F0694A9F784911095177041F0D695D6
:104C2000C79557954795F794E7941A95C1F7EAEE1B
:104C3000F0E06894159015913591659195910590E6
:104C40007FE27395E118F10A430B560BC90BD009AB
:104C5000C0F7E10CF11E431F561FC91FD01D7EF483
:104C6000703311F48A95E6CFE894015030F0080FC4
:104C70000AF40027021708F4202F2395022F7A3315
:104C800028F079E37D932A95E9F710C07D932A9562
:104C900089F6069497956795379517951794E118B7
:104CA000F10A430B560BC90BD00998F023957E915E
:104CB00073957A3308F070E37C932013B8F77E91F4
:104CC00070617D9330F0839571E37D9370E32A9555
:104CD000E1F71124EF90FF900F911F91CF91DF9199
:104CE000992787FD90950895DC01FC01672F71914C
:104CF0007723E1F7329704C07C916D9370836291C2
:104D0000AE17BF07C8F308950E94C62608F481E0D5
:104D10000895E89409C097FB3EF4909580957095AE
:104D200061957F4F8F4F9F4F9923A9F0F92F96E9F7
:104D3000BB279395F695879577956795B795F1116C
:104D4000F8CFFAF4BB0F11F460FF1BC06F5F7F4F09
:104D50008F4F9F4F16C0882311F096E911C077231B
:104D600021F09EE8872F762F05C0662371F096E824
:104D7000862F70E060E02AF09A95660F771F881FF3
:104D8000DAF7880F9695879597F90895990F000897
:104D9000550FAA0BE0E8FEEF16161706E807F9070D
:104DA000C0F012161306E407F50798F0621B730BA8
:104DB000840B950B39F40A2661F0232B242B252B29
:104DC00021F408950A2609F4A140A6958FEF811DCC
:104DD000811D08950E94FD260C946E270E94602775
:104DE00038F00E94672720F0952311F00C94572784
:104DF0000C945D2711240C94A2270E947F2770F346
:104E0000959FC1F3950F50E0551F629FF001729F6F
:104E1000BB27F00DB11D639FAA27F00DB11DAA1F7E
:104E2000649F6627B00DA11D661F829F2227B00DCB
:104E3000A11D621F739FB00DA11D621F839FA00D56
:104E4000611D221F749F3327A00D611D231F849FA6
:104E5000600D211D822F762F6A2F11249F575040FD
:104E60009AF0F1F088234AF0EE0FFF1FBB1F661F78
:104E7000771F881F91505040A9F79E3F510580F041
:104E80000C9457270C94A2275F3FE4F3983ED4F389
:104E9000869577956795B795F795E7959F5FC1F7E5
:104EA000FE2B880F911D9695879597F9089597F990
:104EB0009F6780E870E060E008959FEF80EC0895C0
:104EC00000240A94161617061806090608950024E9
:104ED0000A9412161306140605060895092E039463
:104EE000000C11F4882352F0BB0F40F4BF2B11F4D7
:104EF00060FF04C06F5F7F4F8F4F9F4F089557FD36
:104F00009058440F551F59F05F3F71F04795880F37
:104F100097FB991F61F09F3F79F0879508951216CE
:104F200013061406551FF2CF4695F1DF08C016167A
:104F300017061806991FF1CF86957105610508942B
:104F40000895E894BB2766277727CB0197F9089542
:104F50000E940C28A59F900DB49F900DA49F800DDA
:104F6000911D112408952F923F924F925F926F925C
:104F70007F928F929F92AF92BF92CF92DF92EF92E9
:104F8000FF920F931F93CF93DF93CDB7DEB7CA1B6A
:104F9000DB0B0FB6F894DEBF0FBECDBF09942A8895
:104FA000398848885F846E847D848C849B84AA843D
:104FB000B984C884DF80EE80FD800C811B81AA81CA
:104FC000B981CE0FD11D0FB6F894DEBF0FBECDBF95
:104FD000ED010895A1E21A2EAA1BBB1BFD010DC015
:104FE000AA1FBB1FEE1FFF1FA217B307E407F50799
:104FF00020F0A21BB30BE40BF50B661F771F881F75
:10500000991F1A9469F760957095809590959B010A
:10501000AC01BD01CF010895A29FB001B39FC001B3
:10502000A39F700D811D1124911DB29F700D811DD4
:105030001124911D08955058BB27AA270E94332898
:105040000C946E270E94602738F00E94672720F09A
:1050500039F49F3F19F426F40C945D270EF4E09583
:10506000E7FB0C945727E92F0E947F2758F3BA17C4
:10507000620773078407950720F079F4A6F50C946E
:10508000A1270EF4E0950B2EBA2FA02D0B01B9012C
:1050900090010C01CA01A0011124FF27591B99F0AE
:1050A000593F50F4503E68F11A16F040A22F232FBA
:1050B000342F4427585FF3CF469537952795A7950A
:1050C000F0405395C9F77EF41F16BA0B620B730BB1
:1050D000840BBAF09150A1F0FF0FBB1F661F771F22
:1050E000881FC2F70EC0BA0F621F731F841F48F4D7
:1050F000879577956795B795F7959E3F08F0B0CF60
:105100009395880F08F09927EE0F97958795089546
:105110000E949C280C946E270E94672758F00E94DA
:10512000602740F029F45F3F29F00C945727511174
:105130000C94A2270C945D270E947F2768F3992383
:10514000B1F3552391F3951B550BBB27AA27621783
:105150007307840738F09F5F5F4F220F331F441F90
:10516000AA1FA9F335D00E2E3AF0E0E832D09150C4
:105170005040E695001CCAF72BD0FE2F29D0660FB1
:10518000771F881FBB1F261737074807AB07B0E8F4
:1051900009F0BB0B802DBF01FF2793585F4F3AF0FA
:1051A0009E3F510578F00C9457270C94A2275F3F3F
:1051B000E4F3983ED4F3869577956795B795F79580
:1051C0009F5FC9F7880F911D9695879597F9089568
:1051D000E1E0660F771F881FBB1F62177307840704
:1051E000BA0720F0621B730B840BBA0BEE1F88F713
:1051F000E09508950E9401296894B1110C94A227AA
:1052000008950E94872788F09F5798F0B92F992713
:10521000B751B0F0E1F0660F771F881F991F1AF0A1
:10522000BA95C9F714C0B13091F00E94A127B1E03E
:1052300008950C94A127672F782F8827B85F39F03D
:10524000B93FCCF3869577956795B395D9F73EF43A
:1052500090958095709561957F4F8F4F9F4F0895E2
:105260000E94C62608F48FEF0895FA01EE0FFF1F83
:10527000309621053105A1F16115710561F4803881
:10528000BFE39B0749F168949038810561F080384D
:10529000BFEF9B0741F099234AF5FF3FE105310538
:1052A000210519F1E8940894E795D901AA2329F476
:1052B000AB2FBE2FF85FD0F310C0FF5F70F4A69540
:1052C000E0F7F73950F019F0FF3A38F49F779F93E1
:1052D0000DD00F9007FC9058089546F00C945D2770
:1052E00060E070E080E89FE308954FE79F775F9369
:1052F0004F933F932F930E94902A2F913F914F916C
:105300005F910E94EA260C94D82919F416F40C94A3
:105310005D270C940A2A0E948727B8F39923C9F3C2
:10532000B6F39F57550B87FF0E94182A0024A0E66A
:1053300040EA900180585695979528F4805C660F56
:10534000771F881F20F026173707480730F4621BA5
:10535000730B840B202931294A2BA69517940794A7
:10536000202531254A2758F7660F771F881F20F020
:1053700026173707480730F4620B730B840B200D98
:10538000311D411DA09581F7B901842F9158880FD7
:105390009695879508950E94C626880B990B0895C7
:1053A00029F416F00C9457270C94A1270C945D2730
:1053B0000E948727A8F39638A0F707F80F92E89481
:1053C0002BE33AEA48EB5FE70E9400270F920F9227
:1053D0000F924DB75EB70F920E94D82AE8E6F0E030
:1053E0000E941F2A4F915F91EF91FF91E595EE1F6B
:1053F000FF1F49F0FE57E0684427EE0F441FFA955F
:10540000E1F74195550B0E94522A0F9007FE0C942C
:10541000462A08959F3F31F0915020F48795779563
:105420006795B795880F911D9695879597F908957B
:1054300091505040660F771F881FD2F70895DF9371
:10544000CF931F930F93FF92EF92DF927B018C011A
:10545000689406C0DA2EEF010E94FD26FE01E89452
:10546000A5912591359145915591A6F3EF010E94A3
:105470003328FE019701A801DA9469F7DF90EF90D5
:10548000FF900F911F91CF91DF9108959B01AC0187
:1054900060E070E080E89FE30C9488280C94572724
:1054A0000C940A2A0E948727D8F39923C9F3940FF2
:1054B000511DA3F39150504094F059F0882332F0DD
:1054C000660F771F881F91505040C1F79E3F5105CE
:1054D0002CF7880F911D9695879597F908955F3F52
:1054E000ACF0983E9CF0BB27869577956795B7956D
:1054F00008F4B1609395C1F7BB0F58F711F460FF42
:10550000E8CF6F5F7F4F8F4F9F4FE3CF0C94A22761
:1055100016F00C940A2A0C945D2768940C94572773
:105520000E948727A8F39923C1F3AEF3DF93CF93AB
:105530001F930F93FF92C92FDD2788232AF021970D
:10554000660F771F881FDAF720E030E040E85FEB56
:105550009FE3883920F0803E38F021968F770E94B3
:105560001C28E0E9F0E004C00E941C28EDEBF0E00C
:105570000E941F2A8B01BE01EC01FB2E6F5771099F
:105580007595771F880B990B0E948B2628E132E7CF
:1055900041E35FE30E94FD26AF2D9801AE01FF902D
:1055A0000F911F91CF91DF910E9433280C946E27A9
:1055B000FA01DC01AA0FBB1F9B01AC01BF5728F405
:1055C000222733274427507820C0B75190F4AB2FBF
:1055D0000024469537952795011CA395D2F300200A
:1055E00071F0220F331F441FB395DAF30ED00C94E1
:1055F0001B2861307105A0E88A07B94630F49B0189
:10560000AC016627772788279078309621F0208391
:105610003183428353830895DB018F939F930E94CC
:10562000A827BF91AF91A29F800D911DA39F900DC0
:10563000B29F900D1124089597FB072E16F4009445
:1056400007D077FD09D00E94302B07FC05D03EF42F
:10565000909581959F4F0895709561957F4F08951E
:10566000AA1BBB1B51E107C0AA1FBB1FA617B70788
:1056700010F0A61BB70B881F991F5A95A9F78095A4
:105680009095BC01CD010895EE0FFF1F0590F49198
:10569000E02D0994B0E0A0E0E0E5FBE20C94B52732
:1056A0008C01009751F4CB010E94C1228C01C801EA
:1056B000CDB7DEB7E0E10C94D127FC01E60FF71F70
:1056C0009C0122503109E217F30708F49DC0D9016B
:1056D000CD91DC911197C617D70798F0C530D10549
:1056E00030F3CE0104978617970708F3C61BD70B34
:1056F0002297C193D1936D937C93CF010E945D2338
:10570000D6CF5B01AC1ABD0A4C018C0E9D1EA09138
:105710002704B0912804512C412CF12CE12C109736
:1057200031F580912504909126048815990509F09A
:105730005CC04616570608F058C080910C01909145
:105740000D01009741F48DB79EB740911001509123
:105750001101841B950BE817F90708F055C0F09369
:105760002604E0932504F90171836083A0CF8D9115
:105770009C91119712966C90129713967C901397A8
:10578000A815B90559F56C0142E0C40ED11CCA1424
:10579000DB0420F1AC014A195B09DA011296159776
:1057A00080F06282738251834083D9016D937C9330
:1057B000E114F10471F0D7011396FC93EE93129764
:1057C00076CF22968C0F9D1FF90191838083F30180
:1057D000EFCFF0932804E093270469CF48165906C9
:1057E00008F42C017D01D3019ACFCB010E94C12284
:1057F0007C01009749F0AE01B8010E940C2CC80151
:105800000E945D23870153CF10E000E050CF81E07C
:1058100090E0F8940C941C2CFB01DC0102C0019078
:105820000D9241505040D8F70895FB01DC010190E2
:0C5830000D920020E1F70895F894FFCFDE
:10583C000004EE03EE03CA74C0FFBD01000029048E
:10584C0080000000000025078109650D1307D502B3
:10585C00F70AB508680B950734083B0779163F0B18
:10586C009D13D80A8E077E077A0700000000BA073E
:10587C00FD0B650DB9074409250B8F08CF0CEC16F1
:10588C00210BE009BD095404AE07D0075E00BC0033
:10589C00770100000000A6027902650D4F0272022A
:1058AC005F02500200000000CF0413045C041C05CE
:1058BC008D046B047F040000000012079913000094
:1058CC0000009707640C650DAD07960B00000000F7
:1058DC00D9106E616E00696E66006F7666000D0AF7
:1058EC000053657269616C2E626567696E28393682
:1058FC003030290052203D2000204F686D202020A0
:10590C002D3E2020200074656D70505431303020B5
:10591C003D20002047726443004D657373666568D3
:0E592C006C65720030002020202078200000E2
:00000001FF
